{
  "address": "0xC86ae77BC832Ac9B03793F98285AF490feEDE0Ae",
  "abi": [
    {
      "inputs": [],
      "name": "PRBMathSD59x18__AbsInputTooSmall",
      "type": "error"
    },
    {
      "inputs": [],
      "name": "PRBMathSD59x18__MulInputTooSmall",
      "type": "error"
    },
    {
      "inputs": [
        {
          "internalType": "uint256",
          "name": "rAbs",
          "type": "uint256"
        }
      ],
      "name": "PRBMathSD59x18__MulOverflow",
      "type": "error"
    },
    {
      "inputs": [
        {
          "internalType": "uint256",
          "name": "rAbs",
          "type": "uint256"
        }
      ],
      "name": "PRBMathSD59x18__PowuOverflow",
      "type": "error"
    },
    {
      "inputs": [
        {
          "internalType": "uint256",
          "name": "prod1",
          "type": "uint256"
        }
      ],
      "name": "PRBMath__MulDivFixedPointOverflow",
      "type": "error"
    },
    {
      "inputs": [
        {
          "internalType": "uint256",
          "name": "prod1",
          "type": "uint256"
        },
        {
          "internalType": "uint256",
          "name": "denominator",
          "type": "uint256"
        }
      ],
      "name": "PRBMath__MulDivOverflow",
      "type": "error"
    },
    {
      "anonymous": false,
      "inputs": [
        {
          "indexed": true,
          "internalType": "address",
          "name": "owner",
          "type": "address"
        },
        {
          "indexed": true,
          "internalType": "address",
          "name": "operator",
          "type": "address"
        },
        {
          "indexed": true,
          "internalType": "uint256",
          "name": "tokenId",
          "type": "uint256"
        }
      ],
      "name": "Approval",
      "type": "event"
    },
    {
      "anonymous": false,
      "inputs": [
        {
          "indexed": true,
          "internalType": "address",
          "name": "owner",
          "type": "address"
        },
        {
          "indexed": true,
          "internalType": "address",
          "name": "operator",
          "type": "address"
        },
        {
          "indexed": false,
          "internalType": "bool",
          "name": "approved",
          "type": "bool"
        }
      ],
      "name": "ApprovalForAll",
      "type": "event"
    },
    {
      "anonymous": false,
      "inputs": [
        {
          "indexed": true,
          "internalType": "uint256",
          "name": "tokenId",
          "type": "uint256"
        },
        {
          "indexed": true,
          "internalType": "uint256",
          "name": "salePrice",
          "type": "uint256"
        }
      ],
      "name": "Bought",
      "type": "event"
    },
    {
      "anonymous": false,
      "inputs": [
        {
          "indexed": true,
          "internalType": "address",
          "name": "account",
          "type": "address"
        },
        {
          "indexed": true,
          "internalType": "uint256",
          "name": "amount",
          "type": "uint256"
        }
      ],
      "name": "FRClaimed",
      "type": "event"
    },
    {
      "anonymous": false,
      "inputs": [
        {
          "indexed": true,
          "internalType": "uint256",
          "name": "tokenId",
          "type": "uint256"
        },
        {
          "indexed": true,
          "internalType": "uint256",
          "name": "soldPrice",
          "type": "uint256"
        },
        {
          "indexed": true,
          "internalType": "uint256",
          "name": "allocatedFR",
          "type": "uint256"
        }
      ],
      "name": "FRDistributed",
      "type": "event"
    },
    {
      "anonymous": false,
      "inputs": [
        {
          "indexed": true,
          "internalType": "uint256",
          "name": "tokenId",
          "type": "uint256"
        },
        {
          "indexed": true,
          "internalType": "uint256",
          "name": "salePrice",
          "type": "uint256"
        }
      ],
      "name": "Listed",
      "type": "event"
    },
    {
      "anonymous": false,
      "inputs": [
        {
          "indexed": true,
          "internalType": "address",
          "name": "account",
          "type": "address"
        },
        {
          "indexed": true,
          "internalType": "uint256",
          "name": "amount",
          "type": "uint256"
        }
      ],
      "name": "ORClaimed",
      "type": "event"
    },
    {
      "anonymous": false,
      "inputs": [
        {
          "indexed": true,
          "internalType": "uint256",
          "name": "tokenId",
          "type": "uint256"
        },
        {
          "indexed": true,
          "internalType": "uint256",
          "name": "soldPrice",
          "type": "uint256"
        },
        {
          "indexed": true,
          "internalType": "uint256",
          "name": "allocatedFR",
          "type": "uint256"
        }
      ],
      "name": "ORDistributed",
      "type": "event"
    },
    {
      "anonymous": false,
      "inputs": [
        {
          "indexed": true,
          "internalType": "address",
          "name": "from",
          "type": "address"
        },
        {
          "indexed": true,
          "internalType": "address",
          "name": "to",
          "type": "address"
        },
        {
          "indexed": true,
          "internalType": "uint256",
          "name": "tokenId",
          "type": "uint256"
        }
      ],
      "name": "OTokenTransfer",
      "type": "event"
    },
    {
      "anonymous": false,
      "inputs": [
        {
          "indexed": true,
          "internalType": "uint256",
          "name": "tokenId",
          "type": "uint256"
        }
      ],
      "name": "OTokensDistributed",
      "type": "event"
    },
    {
      "anonymous": false,
      "inputs": [
        {
          "indexed": true,
          "internalType": "address",
          "name": "from",
          "type": "address"
        },
        {
          "indexed": true,
          "internalType": "address",
          "name": "to",
          "type": "address"
        },
        {
          "indexed": true,
          "internalType": "uint256",
          "name": "tokenId",
          "type": "uint256"
        }
      ],
      "name": "Transfer",
      "type": "event"
    },
    {
      "anonymous": false,
      "inputs": [
        {
          "indexed": true,
          "internalType": "uint256",
          "name": "tokenId",
          "type": "uint256"
        }
      ],
      "name": "Unlisted",
      "type": "event"
    },
    {
      "inputs": [
        {
          "internalType": "address",
          "name": "operator",
          "type": "address"
        },
        {
          "internalType": "uint256",
          "name": "tokenId",
          "type": "uint256"
        }
      ],
      "name": "approve",
      "outputs": [],
      "stateMutability": "payable",
      "type": "function"
    },
    {
      "inputs": [
        {
          "internalType": "address",
          "name": "account",
          "type": "address"
        }
      ],
      "name": "balanceOf",
      "outputs": [
        {
          "internalType": "uint256",
          "name": "",
          "type": "uint256"
        }
      ],
      "stateMutability": "view",
      "type": "function"
    },
    {
      "inputs": [
        {
          "internalType": "uint256",
          "name": "tokenId",
          "type": "uint256"
        },
        {
          "internalType": "address",
          "name": "account",
          "type": "address"
        }
      ],
      "name": "balanceOfOTokens",
      "outputs": [
        {
          "internalType": "uint256",
          "name": "",
          "type": "uint256"
        }
      ],
      "stateMutability": "view",
      "type": "function"
    },
    {
      "inputs": [
        {
          "internalType": "uint256",
          "name": "tokenId",
          "type": "uint256"
        }
      ],
      "name": "buy",
      "outputs": [],
      "stateMutability": "payable",
      "type": "function"
    },
    {
      "inputs": [
        {
          "internalType": "uint256",
          "name": "newManagerCut",
          "type": "uint256"
        }
      ],
      "name": "changeManagerCut",
      "outputs": [],
      "stateMutability": "nonpayable",
      "type": "function"
    },
    {
      "inputs": [
        {
          "internalType": "uint256",
          "name": "tokenId",
          "type": "uint256"
        }
      ],
      "name": "getApproved",
      "outputs": [
        {
          "internalType": "address",
          "name": "",
          "type": "address"
        }
      ],
      "stateMutability": "view",
      "type": "function"
    },
    {
      "inputs": [
        {
          "internalType": "uint256",
          "name": "tokenId",
          "type": "uint256"
        }
      ],
      "name": "getLicenseName",
      "outputs": [
        {
          "internalType": "string",
          "name": "",
          "type": "string"
        }
      ],
      "stateMutability": "view",
      "type": "function"
    },
    {
      "inputs": [
        {
          "internalType": "uint256",
          "name": "tokenId",
          "type": "uint256"
        }
      ],
      "name": "getLicenseURI",
      "outputs": [
        {
          "internalType": "string",
          "name": "",
          "type": "string"
        }
      ],
      "stateMutability": "view",
      "type": "function"
    },
    {
      "inputs": [
        {
          "internalType": "address",
          "name": "account",
          "type": "address"
        },
        {
          "internalType": "address",
          "name": "operator",
          "type": "address"
        }
      ],
      "name": "isApprovedForAll",
      "outputs": [
        {
          "internalType": "bool",
          "name": "",
          "type": "bool"
        }
      ],
      "stateMutability": "view",
      "type": "function"
    },
    {
      "inputs": [
        {
          "internalType": "uint256",
          "name": "tokenId",
          "type": "uint256"
        },
        {
          "internalType": "uint256",
          "name": "salePrice",
          "type": "uint256"
        }
      ],
      "name": "list",
      "outputs": [],
      "stateMutability": "nonpayable",
      "type": "function"
    },
    {
      "inputs": [
        {
          "internalType": "address",
          "name": "recipient",
          "type": "address"
        },
        {
          "internalType": "uint8",
          "name": "numGenerations",
          "type": "uint8"
        },
        {
          "internalType": "uint256",
          "name": "rewardRatio",
          "type": "uint256"
        },
        {
          "internalType": "uint256",
          "name": "ORatio",
          "type": "uint256"
        },
        {
          "internalType": "uint8",
          "name": "license",
          "type": "uint8"
        },
        {
          "internalType": "string",
          "name": "tokenURI",
          "type": "string"
        }
      ],
      "name": "mint",
      "outputs": [
        {
          "internalType": "uint256",
          "name": "tokenId",
          "type": "uint256"
        }
      ],
      "stateMutability": "nonpayable",
      "type": "function"
    },
    {
      "inputs": [],
      "name": "name",
      "outputs": [
        {
          "internalType": "string",
          "name": "",
          "type": "string"
        }
      ],
      "stateMutability": "view",
      "type": "function"
    },
    {
      "inputs": [
        {
          "internalType": "address",
          "name": "",
          "type": "address"
        },
        {
          "internalType": "address",
          "name": "",
          "type": "address"
        },
        {
          "internalType": "uint256",
          "name": "",
          "type": "uint256"
        },
        {
          "internalType": "bytes",
          "name": "",
          "type": "bytes"
        }
      ],
      "name": "onERC721Received",
      "outputs": [
        {
          "internalType": "bytes4",
          "name": "",
          "type": "bytes4"
        }
      ],
      "stateMutability": "pure",
      "type": "function"
    },
    {
      "inputs": [
        {
          "internalType": "uint256",
          "name": "tokenId",
          "type": "uint256"
        }
      ],
      "name": "ownerOf",
      "outputs": [
        {
          "internalType": "address",
          "name": "",
          "type": "address"
        }
      ],
      "stateMutability": "view",
      "type": "function"
    },
    {
      "inputs": [
        {
          "internalType": "address payable",
          "name": "account",
          "type": "address"
        }
      ],
      "name": "releaseFR",
      "outputs": [],
      "stateMutability": "nonpayable",
      "type": "function"
    },
    {
      "inputs": [
        {
          "internalType": "address payable",
          "name": "account",
          "type": "address"
        }
      ],
      "name": "releaseOR",
      "outputs": [],
      "stateMutability": "nonpayable",
      "type": "function"
    },
    {
      "inputs": [
        {
          "internalType": "address",
          "name": "account",
          "type": "address"
        }
      ],
      "name": "retrieveAllottedFR",
      "outputs": [
        {
          "internalType": "uint256",
          "name": "",
          "type": "uint256"
        }
      ],
      "stateMutability": "view",
      "type": "function"
    },
    {
      "inputs": [
        {
          "internalType": "address",
          "name": "account",
          "type": "address"
        }
      ],
      "name": "retrieveAllottedOR",
      "outputs": [
        {
          "internalType": "uint256",
          "name": "",
          "type": "uint256"
        }
      ],
      "stateMutability": "view",
      "type": "function"
    },
    {
      "inputs": [
        {
          "internalType": "uint256",
          "name": "tokenId",
          "type": "uint256"
        }
      ],
      "name": "retrieveFRInfo",
      "outputs": [
        {
          "internalType": "uint8",
          "name": "numGenerations",
          "type": "uint8"
        },
        {
          "internalType": "uint256",
          "name": "percentOfProfit",
          "type": "uint256"
        },
        {
          "internalType": "uint256",
          "name": "successiveRatio",
          "type": "uint256"
        },
        {
          "internalType": "uint256",
          "name": "lastSoldPrice",
          "type": "uint256"
        },
        {
          "internalType": "uint256",
          "name": "ownerAmount",
          "type": "uint256"
        },
        {
          "internalType": "address[]",
          "name": "addressesInFR",
          "type": "address[]"
        }
      ],
      "stateMutability": "view",
      "type": "function"
    },
    {
      "inputs": [
        {
          "internalType": "uint256",
          "name": "tokenId",
          "type": "uint256"
        }
      ],
      "name": "retrieveListInfo",
      "outputs": [
        {
          "internalType": "uint256",
          "name": "",
          "type": "uint256"
        },
        {
          "internalType": "address",
          "name": "",
          "type": "address"
        },
        {
          "internalType": "bool",
          "name": "",
          "type": "bool"
        }
      ],
      "stateMutability": "view",
      "type": "function"
    },
    {
      "inputs": [],
      "name": "retrieveManagerInfo",
      "outputs": [
        {
          "internalType": "address",
          "name": "untradingManager",
          "type": "address"
        },
        {
          "internalType": "uint256",
          "name": "managerCut",
          "type": "uint256"
        }
      ],
      "stateMutability": "view",
      "type": "function"
    },
    {
      "inputs": [
        {
          "internalType": "uint256",
          "name": "tokenId",
          "type": "uint256"
        }
      ],
      "name": "retrieveORInfo",
      "outputs": [
        {
          "internalType": "uint256",
          "name": "ORatio",
          "type": "uint256"
        },
        {
          "internalType": "uint256",
          "name": "rewardRatio",
          "type": "uint256"
        },
        {
          "internalType": "address[]",
          "name": "holders",
          "type": "address[]"
        }
      ],
      "stateMutability": "view",
      "type": "function"
    },
    {
      "inputs": [
        {
          "internalType": "uint256",
          "name": "tokenId",
          "type": "uint256"
        }
      ],
      "name": "retrieveWrappedInfo",
      "outputs": [
        {
          "internalType": "address",
          "name": "",
          "type": "address"
        },
        {
          "internalType": "uint256",
          "name": "",
          "type": "uint256"
        },
        {
          "internalType": "bool",
          "name": "",
          "type": "bool"
        }
      ],
      "stateMutability": "view",
      "type": "function"
    },
    {
      "inputs": [
        {
          "internalType": "address",
          "name": "from",
          "type": "address"
        },
        {
          "internalType": "address",
          "name": "to",
          "type": "address"
        },
        {
          "internalType": "uint256",
          "name": "tokenId",
          "type": "uint256"
        }
      ],
      "name": "safeTransferFrom",
      "outputs": [],
      "stateMutability": "payable",
      "type": "function"
    },
    {
      "inputs": [
        {
          "internalType": "address",
          "name": "from",
          "type": "address"
        },
        {
          "internalType": "address",
          "name": "to",
          "type": "address"
        },
        {
          "internalType": "uint256",
          "name": "tokenId",
          "type": "uint256"
        },
        {
          "internalType": "bytes",
          "name": "data",
          "type": "bytes"
        }
      ],
      "name": "safeTransferFrom",
      "outputs": [],
      "stateMutability": "payable",
      "type": "function"
    },
    {
      "inputs": [
        {
          "internalType": "address",
          "name": "operator",
          "type": "address"
        },
        {
          "internalType": "bool",
          "name": "status",
          "type": "bool"
        }
      ],
      "name": "setApprovalForAll",
      "outputs": [],
      "stateMutability": "nonpayable",
      "type": "function"
    },
    {
      "inputs": [
        {
          "internalType": "bytes4",
          "name": "interfaceId",
          "type": "bytes4"
        }
      ],
      "name": "supportsInterface",
      "outputs": [
        {
          "internalType": "bool",
          "name": "",
          "type": "bool"
        }
      ],
      "stateMutability": "view",
      "type": "function"
    },
    {
      "inputs": [],
      "name": "symbol",
      "outputs": [
        {
          "internalType": "string",
          "name": "",
          "type": "string"
        }
      ],
      "stateMutability": "view",
      "type": "function"
    },
    {
      "inputs": [
        {
          "internalType": "uint256",
          "name": "index",
          "type": "uint256"
        }
      ],
      "name": "tokenByIndex",
      "outputs": [
        {
          "internalType": "uint256",
          "name": "",
          "type": "uint256"
        }
      ],
      "stateMutability": "view",
      "type": "function"
    },
    {
      "inputs": [
        {
          "internalType": "address",
          "name": "owner",
          "type": "address"
        },
        {
          "internalType": "uint256",
          "name": "index",
          "type": "uint256"
        }
      ],
      "name": "tokenOfOwnerByIndex",
      "outputs": [
        {
          "internalType": "uint256",
          "name": "",
          "type": "uint256"
        }
      ],
      "stateMutability": "view",
      "type": "function"
    },
    {
      "inputs": [
        {
          "internalType": "uint256",
          "name": "tokenId",
          "type": "uint256"
        }
      ],
      "name": "tokenURI",
      "outputs": [
        {
          "internalType": "string",
          "name": "",
          "type": "string"
        }
      ],
      "stateMutability": "view",
      "type": "function"
    },
    {
      "inputs": [],
      "name": "totalSupply",
      "outputs": [
        {
          "internalType": "uint256",
          "name": "",
          "type": "uint256"
        }
      ],
      "stateMutability": "view",
      "type": "function"
    },
    {
      "inputs": [
        {
          "internalType": "address",
          "name": "from",
          "type": "address"
        },
        {
          "internalType": "address",
          "name": "to",
          "type": "address"
        },
        {
          "internalType": "uint256",
          "name": "tokenId",
          "type": "uint256"
        }
      ],
      "name": "transferFrom",
      "outputs": [],
      "stateMutability": "payable",
      "type": "function"
    },
    {
      "inputs": [
        {
          "internalType": "uint256",
          "name": "tokenId",
          "type": "uint256"
        },
        {
          "internalType": "address",
          "name": "recipient",
          "type": "address"
        },
        {
          "internalType": "uint256",
          "name": "amount",
          "type": "uint256"
        }
      ],
      "name": "transferOTokens",
      "outputs": [],
      "stateMutability": "nonpayable",
      "type": "function"
    },
    {
      "inputs": [
        {
          "internalType": "uint256",
          "name": "tokenId",
          "type": "uint256"
        }
      ],
      "name": "unlist",
      "outputs": [],
      "stateMutability": "nonpayable",
      "type": "function"
    },
    {
      "inputs": [
        {
          "internalType": "address",
          "name": "token",
          "type": "address"
        },
        {
          "internalType": "uint256",
          "name": "tokenId",
          "type": "uint256"
        },
        {
          "internalType": "uint8",
          "name": "numGenerations",
          "type": "uint8"
        },
        {
          "internalType": "uint256",
          "name": "rewardRatio",
          "type": "uint256"
        },
        {
          "internalType": "uint256",
          "name": "ORatio",
          "type": "uint256"
        },
        {
          "internalType": "uint8",
          "name": "license",
          "type": "uint8"
        },
        {
          "internalType": "string",
          "name": "tokenURI",
          "type": "string"
        }
      ],
      "name": "wrap",
      "outputs": [],
      "stateMutability": "nonpayable",
      "type": "function"
    }
  ],
  "transactionHash": "0xaf9f6eb5945998453580e762239df24e23e58da8a1f87d0ea9986550d55cac30",
  "args": [],
  "numDeployments": 3,
  "solcInputHash": "0af65790903c4781d5298651307d48c0",
  "bytecode": "0x608060405234801561001057600080fd5b506154c7806100206000396000f3fe60806040526004361061024f5760003560e01c80636440263411610138578063bf5a4dd3116100b0578063e985e9c51161007f578063e9d8051811610064578063e9d80518146107eb578063ec40874114610851578063fcf0dc70146108d257600080fd5b8063e985e9c5146107ab578063e9c927ce146107cb57600080fd5b8063bf5a4dd314610703578063c87b56dd14610723578063d96a094a14610743578063de3764681461075657600080fd5b806380039a6911610107578063a22cb465116100ec578063a22cb465146106b0578063b88d4fde146106d0578063bb0b7989146106e357600080fd5b806380039a691461066c57806395d89b411461069b57600080fd5b8063644026341461054757806367210d271461056757806369336e4f146105f757806370a082311461064c57600080fd5b806332dea195116101cb5780634f6ccce71161019a5780635101ab531161017f5780635101ab531461046657806351a15a7b146104985780636352211e1461052757600080fd5b80634f6ccce71461042657806350fd73671461044657600080fd5b806332dea195146103b35780633b21b215146103d35780633b2af272146103f357806342842e0e1461041357600080fd5b8063150b7a021161022257806323b872dd1161020757806323b872dd146103605780632f745c591461037357806330bafc651461039357600080fd5b8063150b7a02146102f857806318160ddd1461033d57600080fd5b806301ffc9a71461025457806306fdde0314610289578063081812fc146102ab578063095ea7b3146102e3575b600080fd5b34801561026057600080fd5b5061027461026f366004614b72565b6108f2565b60405190151581526020015b60405180910390f35b34801561029557600080fd5b5061029e610935565b6040516102809190614be7565b3480156102b757600080fd5b506102cb6102c6366004614bfa565b6109e6565b6040516001600160a01b039091168152602001610280565b6102f66102f1366004614c28565b6109f1565b005b34801561030457600080fd5b50610324610313366004614c54565b630a85bd0160e11b95945050505050565b6040516001600160e01b03199091168152602001610280565b34801561034957600080fd5b50610352610b33565b604051908152602001610280565b6102f661036e366004614cf3565b610b42565b34801561037f57600080fd5b5061035261038e366004614c28565b610bd5565b34801561039f57600080fd5b5061029e6103ae366004614bfa565b610be8565b3480156103bf57600080fd5b506102f66103ce366004614d34565b610bf3565b3480156103df57600080fd5b5061029e6103ee366004614bfa565b610d79565b3480156103ff57600080fd5b506102f661040e366004614d51565b610d84565b6102f6610421366004614cf3565b6110d8565b34801561043257600080fd5b50610352610441366004614bfa565b6110f3565b34801561045257600080fd5b506102f6610461366004614d78565b6110fe565b34801561047257600080fd5b50610486610481366004614bfa565b611246565b60405161028096959493929190614dde565b3480156104a457600080fd5b506105026104b3366004614bfa565b60009081527f7cb630d146436defe02f120e4c839c242f8b65efc3c28d82b113b73e8a81c29360205260409020805460019091015490916001600160a01b03821691600160a01b900460ff1690565b604080519384526001600160a01b039092166020840152151590820152606001610280565b34801561053357600080fd5b506102cb610542366004614bfa565b611347565b34801561055357600080fd5b506102f6610562366004614d34565b611352565b34801561057357600080fd5b506105d0610582366004614bfa565b60009081527f3038aceb20aeb59f48d6bf8fd13e020bec41e77992f7e7e4e936e030912d10fb60205260409020805460018201546002909201546001600160a01b039091169260ff90911690565b604080516001600160a01b0390941684526020840192909252151590820152606001610280565b34801561060357600080fd5b50610352610612366004614d34565b6001600160a01b031660009081527f3038aceb20aeb59f48d6bf8fd13e020bec41e77992f7e7e4e936e030912d10fa602052604090205490565b34801561065857600080fd5b50610352610667366004614d34565b6114ea565b34801561067857600080fd5b5061068c610687366004614bfa565b6114f5565b60405161028093929190614e12565b3480156106a757600080fd5b5061029e6115bb565b3480156106bc57600080fd5b506102f66106cb366004614e3a565b6115ec565b6102f66106de366004614f04565b6116d0565b3480156106ef57600080fd5b506102f66106fe366004614fb5565b61176a565b34801561070f57600080fd5b506102f661071e366004614bfa565b611926565b34801561072f57600080fd5b5061029e61073e366004614bfa565b611a2d565b6102f6610751366004614bfa565b611c9a565b34801561076257600080fd5b50610352610771366004614d34565b6001600160a01b031660009081527f7cb630d146436defe02f120e4c839c242f8b65efc3c28d82b113b73e8a81c292602052604090205490565b3480156107b757600080fd5b506102746107c6366004615043565b611eab565b3480156107d757600080fd5b506103526107e6366004615071565b611efa565b3480156107f757600080fd5b506103526108063660046150f4565b60009182527f3038aceb20aeb59f48d6bf8fd13e020bec41e77992f7e7e4e936e030912d10f9602090815260408084206001600160a01b039390931684526001909201905290205490565b34801561085d57600080fd5b506108b37f3038aceb20aeb59f48d6bf8fd13e020bec41e77992f7e7e4e936e030912d10f7547f3038aceb20aeb59f48d6bf8fd13e020bec41e77992f7e7e4e936e030912d10f8546001600160a01b0390911691565b604080516001600160a01b039093168352602083019190915201610280565b3480156108de57600080fd5b506102f66108ed366004614bfa565b612199565b6001600160e01b0319811660009081527f326d0c59a7612f6a9919e2a8ee333c80ba689d8ba2634de89c85cbb04832e705602052604081205460ff165b92915050565b60607f99574a7094154bb123ae6ae102096f0bf9679b85a5cd1e727aaa0ae5f132e6b1805461096390615119565b80601f016020809104026020016040519081016040528092919081815260200182805461098f90615119565b80156109dc5780601f106109b1576101008083540402835291602001916109dc565b820191906000526020600020905b8154815290600101906020018083116109bf57829003601f168201915b5050505050905090565b600061092f82612219565b6109fc8282346122d5565b6000610a0782611347565b9050806001600160a01b0316836001600160a01b03161415610a965760405162461bcd60e51b815260206004820152602160248201527f4552433732313a20617070726f76616c20746f2063757272656e74206f776e6560448201527f720000000000000000000000000000000000000000000000000000000000000060648201526084015b60405180910390fd5b336001600160a01b0382161480610ab25750610ab28133611eab565b610b245760405162461bcd60e51b815260206004820152603860248201527f4552433732313a20617070726f76652063616c6c6572206973206e6f74206f7760448201527f6e6572206e6f7220617070726f76656420666f7220616c6c00000000000000006064820152608401610a8d565b610b2e8383612349565b505050565b6000610b3d6123d6565b905090565b610b4e83838334612401565b610b58338261247a565b610bca5760405162461bcd60e51b815260206004820152603060248201527f4552433732313a207472616e736665722063616c6c6572206973206e6f74206f60448201527f776e6572206f7220617070726f766564000000000000000000000000000000006064820152608401610a8d565b610b2e8383836125b5565b6000610be18383612773565b9392505050565b606061092f826127a0565b6001600160a01b03811660009081527f7cb630d146436defe02f120e4c839c242f8b65efc3c28d82b113b73e8a81c292602052604090205460008051602061547283398151915290610c875760405162461bcd60e51b815260206004820152601160248201527f4e6f204652205061796d656e74206475650000000000000000000000000000006044820152606401610a8d565b6001600160a01b0382166000818152600883016020526040808220805490839055905190929083908381818185875af1925050503d8060008114610ce7576040519150601f19603f3d011682016040523d82523d6000602084013e610cec565b606091505b5050905080610d3d5760405162461bcd60e51b815260206004820152601460248201527f4661696c656420746f2072656c656173652046520000000000000000000000006044820152606401610a8d565b60405182906001600160a01b038616907f5a9202ceea6770814401fd72940be33fb25a4b30d55ca69183766ad7feb3e5ef90600090a350505050565b606061092f826127e1565b7f3038aceb20aeb59f48d6bf8fd13e020bec41e77992f7e7e4e936e030912d10f76001600160a01b038316610dfb5760405162461bcd60e51b815260206004820152601c60248201527f7472616e7366657220746f20746865207a65726f2061646472657373000000006044820152606401610a8d565b6001600160a01b038316331415610e475760405162461bcd60e51b815260206004820152601060248201526f3a3930b739b332b9103a379039b2b63360811b6044820152606401610a8d565b60008211610e975760405162461bcd60e51b815260206004820152601460248201527f7472616e7366657220616d6f756e7420697320300000000000000000000000006044820152606401610a8d565b6000848152600282016020908152604080832033845260010190915290205482811015610f065760405162461bcd60e51b815260206004820152601f60248201527f7472616e7366657220616d6f756e7420657863656564732062616c616e6365006044820152606401610a8d565b6000858152600283016020908152604080832033845260010190915280822085840390556001600160a01b03861682529020805484019055610f48838261516a565b61105d5760005b60008681526002840160205260409020548110156110145760008681526002840160205260409020805433919083908110610f8c57610f8c615181565b6000918252602090912001546001600160a01b031614156110025760008681526002840160205260409020805486919083908110610fcc57610fcc615181565b9060005260206000200160006101000a8154816001600160a01b0302191690836001600160a01b03160217905550505050505050565b8061100c81615197565b915050610f4f565b5060405162461bcd60e51b815260206004820152600960248201527f4e6f7420466f756e6400000000000000000000000000000000000000000000006044820152606401610a8d565b600085815260028301602090815260408220805460018101825590835291200180546001600160a01b0319166001600160a01b0386169081179091558590336001600160a01b03167fcabb64bf74c3918e2dead3a14bbffbb72db126018e7ec25b6477447c50022fac60405160405180910390a45050505050565b610b2e838383604051806020016040528060008152506116d0565b600061092f82612864565b611108338361247a565b61117a5760405162461bcd60e51b815260206004820152602e60248201527f455243353137333a206c6973742063616c6c6572206973206e6f74206f776e6560448201527f72206e6f7220617070726f7665640000000000000000000000000000000000006064820152608401610a8d565b60408051606081018252828152336020808301918252600183850181815260008881527f7cb630d146436defe02f120e4c839c242f8b65efc3c28d82b113b73e8a81c2939093528583209451855592519301805492511515600160a01b0274ffffffffffffffffffffffffffffffffffffffffff199093166001600160a01b039094169390931791909117909155905160008051602061547283398151915291839185917f1ea45e30b31292f9d7c5d37d275b2feca555f13f47dce0fdea2f47e8852ecd7891a3505050565b60008181527f7cb630d146436defe02f120e4c839c242f8b65efc3c28d82b113b73e8a81c2906020908152604080832080546001820154600283015460038401546004909401547f7cb630d146436defe02f120e4c839c242f8b65efc3c28d82b113b73e8a81c291875285882080548751818a0281018a0190985280885289988998899889986060986000805160206154728339815191529860ff9092169790969195929490939192839183018282801561132a57602002820191906000526020600020905b81546001600160a01b0316815260019091019060200180831161130c575b505050505090509650965096509650965096505091939550919395565b600061092f82612890565b6001600160a01b03811660009081527f3038aceb20aeb59f48d6bf8fd13e020bec41e77992f7e7e4e936e030912d10fa60205260409020547f3038aceb20aeb59f48d6bf8fd13e020bec41e77992f7e7e4e936e030912d10f7906113f85760405162461bcd60e51b815260206004820152601160248201527f4e6f204f52205061796d656e74206475650000000000000000000000000000006044820152606401610a8d565b6001600160a01b0382166000818152600383016020526040808220805490839055905190929083908381818185875af1925050503d8060008114611458576040519150601f19603f3d011682016040523d82523d6000602084013e61145d565b606091505b50509050806114ae5760405162461bcd60e51b815260206004820152601460248201527f4661696c656420746f2072656c65617365204f520000000000000000000000006044820152606401610a8d565b60405182906001600160a01b038616907f3feca93bd3b961b230c096b1ef22dba609260c0c044ff23600c1c76075b50a4690600090a350505050565b600061092f82612915565b60008181527f3038aceb20aeb59f48d6bf8fd13e020bec41e77992f7e7e4e936e030912d10f96020908152604080832060028101546003820154825484518187028101870190955280855286956060957f3038aceb20aeb59f48d6bf8fd13e020bec41e77992f7e7e4e936e030912d10f7959290918391908301828280156115a657602002820191906000526020600020905b81546001600160a01b03168152600190910190602001808311611588575b50505050509050935093509350509193909250565b60607f99574a7094154bb123ae6ae102096f0bf9679b85a5cd1e727aaa0ae5f132e6b1600101805461096390615119565b6001600160a01b0382163314156116455760405162461bcd60e51b815260206004820152601960248201527f4552433732313a20617070726f766520746f2063616c6c6572000000000000006044820152606401610a8d565b3360008181527f3c7bf052874fa81625121783266a03507bd2cd48b16e571c01a04e8dd3fb07aa602090815260408083206001600160a01b03871680855290835292819020805460ff191686151590811790915590519081529192917f17307eab39ab6107e8899845ad3d59bd9653f200f220920489ca2b5937696c31910160405180910390a35050565b6116dc84848434612401565b6116e6338361247a565b6117585760405162461bcd60e51b815260206004820152603060248201527f4552433732313a207472616e736665722063616c6c6572206973206e6f74206f60448201527f776e6572206f7220617070726f766564000000000000000000000000000000006064820152608401610a8d565b611764848484846129d3565b50505050565b6001600160a01b0387163014156117e95760405162461bcd60e51b815260206004820152602660248201527f43616e6e6f742077726170206120746f6b656e2066726f6d207468697320636f60448201527f6e747261637400000000000000000000000000000000000000000000000000006064820152608401610a8d565b60006117f9338787878787611efa565b604080516060810182526001600160a01b038b811680835260208084018d8152600185870181815260008981527f3038aceb20aeb59f48d6bf8fd13e020bec41e77992f7e7e4e936e030912d10fb909452878420965187546001600160a01b031916961695909517865590519085015591516002909301805460ff19169315159390931790925582517f42842e0e000000000000000000000000000000000000000000000000000000008152336004820152306024820152604481018c905292519394507f3038aceb20aeb59f48d6bf8fd13e020bec41e77992f7e7e4e936e030912d10f79391926342842e0e926064808301939282900301818387803b15801561190357600080fd5b505af1158015611917573d6000803e3d6000fd5b50505050505050505050505050565b611930338261247a565b6119a25760405162461bcd60e51b815260206004820152603060248201527f455243353137333a20756e6c6973742063616c6c6572206973206e6f74206f7760448201527f6e6572206e6f7220617070726f766564000000000000000000000000000000006064820152608401610a8d565b60008181527f7cb630d146436defe02f120e4c839c242f8b65efc3c28d82b113b73e8a81c2936020526040808220828155600101805474ffffffffffffffffffffffffffffffffffffffffff19169055516000805160206154728339815191529183917f6318005f6dc5a71d3e4ad5b4d1fe455ef3402d62b64573777af55bb6bfe3daab9190a25050565b6060611a5b827f3c7bf052874fa81625121783266a03507bd2cd48b16e571c01a04e8dd3fb07a65b90612a51565b611acd5760405162461bcd60e51b815260206004820152602f60248201527f4552433732314d657461646174613a2055524920717565727920666f72206e6f60448201527f6e6578697374656e7420746f6b656e00000000000000000000000000000000006064820152608401610a8d565b60008281527f99574a7094154bb123ae6ae102096f0bf9679b85a5cd1e727aaa0ae5f132e6b46020526040812080547f99574a7094154bb123ae6ae102096f0bf9679b85a5cd1e727aaa0ae5f132e6b1929190611b2990615119565b80601f0160208091040260200160405190810160405280929190818152602001828054611b5590615119565b8015611ba25780601f10611b7757610100808354040283529160200191611ba2565b820191906000526020600020905b815481529060010190602001808311611b8557829003601f168201915b505050505090506000826002018054611bba90615119565b80601f0160208091040260200160405190810160405280929190818152602001828054611be690615119565b8015611c335780601f10611c0857610100808354040283529160200191611c33565b820191906000526020600020905b815481529060010190602001808311611c1657829003601f168201915b50505050509050805160001415611c4c57509392505050565b815115611c7f578082604051602001611c669291906151b2565b6040516020818303038152906040529350505050919050565b80611c8986612a5d565b604051602001611c669291906151b2565b60008181527f7cb630d146436defe02f120e4c839c242f8b65efc3c28d82b113b73e8a81c2936020526040902060019081015460008051602061547283398151915291600160a01b90910460ff16151514611d375760405162461bcd60e51b815260206004820152601360248201527f546f6b656e206973206e6f74206c6973746564000000000000000000000000006044820152606401610a8d565b60008281526009820160205260409020543414611d965760405162461bcd60e51b815260206004820181905260248201527f73616c65507269636520616e64206d73672e76616c7565206d69736d617463686044820152606401610a8d565b60005b6000838152600783016020526040902054811015611e4b5760008381526007830160205260409020805433919083908110611dd657611dd6615181565b6000918252602090912001546001600160a01b03161415611e395760405162461bcd60e51b815260206004820181905260248201527f416c726561647920696e2074686520465220736c6964696e672077696e646f776044820152606401610a8d565b80611e4381615197565b915050611d99565b50600082815260098201602052604090208054600190910154611e79906001600160a01b0316338584612b8f565b604051819084907f3ccb2ab6980b218b1dd4974b07365cd90a191e170c611da46262fecc208bd66190600090a3505050565b6001600160a01b0380831660009081527f3c7bf052874fa81625121783266a03507bd2cd48b16e571c01a04e8dd3fb07aa6020908152604080832093851683529290529081205460ff16610be1565b600060058660ff1610158015611f14575060148660ff1611155b611f865760405162461bcd60e51b815260206004820152602760248201527f6e756d47656e65726174696f6e73206d757374206265206265747765656e203560448201527f20616e64203230000000000000000000000000000000000000000000000000006064820152608401610a8d565b66b1a2bc2ec500008510158015611fa557506706f05b59d3b200008511155b6120175760405162461bcd60e51b815260206004820152602660248201527f726577617264526174696f206d757374206265206265747765656e203525206160448201527f6e642035302500000000000000000000000000000000000000000000000000006064820152608401610a8d565b66b1a2bc2ec50000841015801561203657506706f05b59d3b200008411155b6120a85760405162461bcd60e51b815260206004820152602160248201527f4f526174696f206d757374206265206265747765656e20352520616e6420353060448201527f25000000000000000000000000000000000000000000000000000000000000006064820152608401610a8d565b600060646120f26716744a6d6e9500006120cd60ff8b16670de0b6b3a76400006151e1565b6120d7919061516a565b6120ec60ff8b16670de0b6b3a76400006151e1565b90612e41565b6120fc9190615216565b6121079060646151e1565b9050600061212761212087670de0b6b3a764000061516a565b8890612e56565b90506121338787612e56565b955061213d612e62565b7f0bec8ab077af1e12783ac8c970bca6dada042613c1ff87b4d0953dea6b0115fc5461216b818b898b612e9c565b6121788a828b8587612fc9565b61218281866131c8565b61218c818761322a565b9998505050505050505050565b7f3038aceb20aeb59f48d6bf8fd13e020bec41e77992f7e7e4e936e030912d10f780546001600160a01b031633146122135760405162461bcd60e51b815260206004820152601460248201527f43616c6c6572206e6f74207065726d69747465640000000000000000000000006044820152606401610a8d565b60010155565b60007f3c7bf052874fa81625121783266a03507bd2cd48b16e571c01a04e8dd3fb07a66122468184612a51565b6122b85760405162461bcd60e51b815260206004820152602c60248201527f4552433732313a20617070726f76656420717565727920666f72206e6f6e657860448201527f697374656e7420746f6b656e00000000000000000000000000000000000000006064820152608401610a8d565b60009283526003016020525060409020546001600160a01b031690565b8015610b2e5760405162461bcd60e51b815260206004820152602b60248201527f4552433732313a2070617961626c6520617070726f76652063616c6c73206e6f60448201527f7420737570706f727465640000000000000000000000000000000000000000006064820152608401610a8d565b60008181527f3c7bf052874fa81625121783266a03507bd2cd48b16e571c01a04e8dd3fb07a96020526040902080546001600160a01b0319166001600160a01b038416908117909155819061239d82612890565b6001600160a01b03167f8c5be1e5ebec7d5bd14f71427d1e84f3dd0314c0f7b2291e5b200ac8c7c3b92560405160405180910390a45050565b6000610b3d7f3c7bf052874fa81625121783266a03507bd2cd48b16e571c01a04e8dd3fb07a6613238565b80156124755760405162461bcd60e51b815260206004820152602c60248201527f4552433732313a2070617961626c65207472616e736665722063616c6c73206e60448201527f6f7420737570706f7274656400000000000000000000000000000000000000006064820152608401610a8d565b611764565b60006124a6827f3c7bf052874fa81625121783266a03507bd2cd48b16e571c01a04e8dd3fb07a6611a55565b6125185760405162461bcd60e51b815260206004820152602360248201527f4552433732313a20717565727920666f72206e6f6e6578697374656e7420746f60448201527f6b656e00000000000000000000000000000000000000000000000000000000006064820152608401610a8d565b600061252383612890565b9050806001600160a01b0316846001600160a01b0316148061255e5750836001600160a01b031661255384612219565b6001600160a01b0316145b806125ad57506001600160a01b0380821660009081527f3c7bf052874fa81625121783266a03507bd2cd48b16e571c01a04e8dd3fb07aa602090815260408083209388168352929052205460ff165b949350505050565b816001600160a01b0316836001600160a01b0316141561260a5760405162461bcd60e51b815260206004820152601060248201526f3a3930b739b332b9103a379039b2b63360811b6044820152606401610a8d565b612615838383613243565b60008051602061547283398151915260005b60008381526007830160205260409020548110156126e2576000838152600783016020526040902080546001600160a01b03861691908390811061266d5761266d615181565b6000918252602090912001546001600160a01b031614156126d05760405162461bcd60e51b815260206004820181905260248201527f416c726561647920696e2074686520465220736c6964696e672077696e646f776044820152606401610a8d565b806126da81615197565b915050612627565b5060008281526009820160205260409020600190810154600160a01b900460ff161515141561273e5760008281526009820160205260408120908155600101805474ffffffffffffffffffffffffffffffffffffffffff191690555b600082815260068201602052604081206003810182905560040180549161276483615197565b9190505550611764838361343f565b6000610be17f3c7bf052874fa81625121783266a03507bd2cd48b16e571c01a04e8dd3fb07a68484613637565b60008181527f958f4f9db6ce87299d2b6ad9a012c8ea9d207ed3b27d2894b9c8a6036c2271e9602081905260409091205460609190610be19060ff1661365b565b606060007f958f4f9db6ce87299d2b6ad9a012c8ea9d207ed3b27d2894b9c8a6036c2271e990506040518060600160405280603181526020016154416031913960008481526020839052604090205461283c9060ff16612a5d565b60405160200161284d9291906151b2565b604051602081830303815290604052915050919050565b600061092f7f3c7bf052874fa81625121783266a03507bd2cd48b16e571c01a04e8dd3fb07a6836137f0565b6000806128bd7f3c7bf052874fa81625121783266a03507bd2cd48b16e571c01a04e8dd3fb07a684613806565b90506001600160a01b03811661092f5760405162461bcd60e51b815260206004820152601560248201527f4552433732313a20696e76616c6964206f776e657200000000000000000000006044820152606401610a8d565b60006001600160a01b0382166129935760405162461bcd60e51b815260206004820152602a60248201527f4552433732313a2062616c616e636520717565727920666f7220746865207a6560448201527f726f2061646472657373000000000000000000000000000000000000000000006064820152608401610a8d565b6001600160a01b03821660009081527f3c7bf052874fa81625121783266a03507bd2cd48b16e571c01a04e8dd3fb07a86020526040902061092f90613812565b6129de8484846125b5565b6129ea8484848461381c565b6117645760405162461bcd60e51b815260206004820152603260248201527f4552433732313a207472616e7366657220746f206e6f6e20455243373231526560448201527131b2b4bb32b91034b6b83632b6b2b73a32b960711b6064820152608401610a8d565b6000610be18383613917565b606081612a9d57505060408051808201909152600181527f3000000000000000000000000000000000000000000000000000000000000000602082015290565b8160005b8115612ac75780612ab181615197565b9150612ac09050600a83615216565b9150612aa1565b60008167ffffffffffffffff811115612ae257612ae2614e78565b6040519080825280601f01601f191660200182016040528015612b0c576020820181803683370190505b5090505b84156125ad57612b2160018361516a565b9150612b2e600a8661522a565b612b3990603061523e565b60f81b818381518110612b4e57612b4e615181565b60200101907effffffffffffffffffffffffffffffffffffffffffffffffffffffffffffff1916908160001a905350612b88600a86615216565b9450612b10565b826001600160a01b0316846001600160a01b03161415612be45760405162461bcd60e51b815260206004820152601060248201526f3a3930b739b332b9103a379039b2b63360811b6044820152606401610a8d565b612bef848484613243565b612c0a8484846040518060200160405280600081525061381c565b612c715760405162461bcd60e51b815260206004820152603260248201527f4552433732313a207472616e7366657220746f206e6f6e20455243373231526560448201527131b2b4bb32b91034b6b83632b6b2b73a32b960711b6064820152608401610a8d565b60008281527f7cb630d146436defe02f120e4c839c242f8b65efc3c28d82b113b73e8a81c290602052604081206003015460008051602061547283398151915291908311612cf3576000848152600683016020526040812060038101859055600401805491612cdf83615197565b9190505550612cee858561343f565b612d35565b612cfd848461392f565b6000858152600684016020526040812060038101869055600401805492935090612d2683615197565b9190505550612d35858561343f565b600084815260098301602052604081206001810180549183905574ffffffffffffffffffffffffffffffffffffffffff19821690556001600160a01b03169081612d7f848761516a565b604051600081818185875af1925050503d8060008114612dbb576040519150601f19603f3d011682016040523d82523d6000602084013e612dc0565b606091505b5050905080612e375760405162461bcd60e51b815260206004820152602560248201527f455243353137333a204661696c656420746f2073656e642045544820746f206c60448201527f69737465720000000000000000000000000000000000000000000000000000006064820152608401610a8d565b5050505050505050565b6000610be183670de0b6b3a7640000846139ef565b6000610be18383613ad6565b60017f0bec8ab077af1e12783ac8c970bca6dada042613c1ff87b4d0953dea6b0115fc8054600090612e9590849061523e565b9091555050565b60008481527f3038aceb20aeb59f48d6bf8fd13e020bec41e77992f7e7e4e936e030912d10f96020818152604080842060028181018890556003820187905582518084019093527f3038aceb20aeb59f48d6bf8fd13e020bec41e77992f7e7e4e936e030912d10f780546001600160a01b0390811685528a1684860152958a905293909252612f2a92614a31565b506001808201546000878152600284016020908152604080832086546001600160a01b03168452909401905291909120819055612f6f90670de0b6b3a764000061516a565b600086815260028301602090815260408083206001600160a01b038916845260010190915280822092909255905186917fe33b4df6ca519196f49edc783e3efade92579814fa72600f8104e5db7439d4a691a25050505050565b60008360ff16118015612fdc5750600082115b8015612ff05750670de0b6b3a76400008211155b8015612ffc5750600081115b6130485760405162461bcd60e51b815260206004820152601360248201527f496e76616c6964204461746120506173736564000000000000000000000000006044820152606401610a8d565b6130528585613bcb565b61306e600086866040518060200160405280600081525061381c565b6130d55760405162461bcd60e51b815260206004820152603260248201527f4552433732313a207472616e7366657220746f206e6f6e20455243373231526560448201527131b2b4bb32b91034b6b83632b6b2b73a32b960711b6064820152608401610a8d565b6040805160c08101825260ff9485168152602080820194855281830193845260006060830181815260016080850181815260a086018281529a84527f7cb630d146436defe02f120e4c839c242f8b65efc3c28d82b113b73e8a81c29085528684209551865460ff1990811691909b161786559751858201559551600285015551600384015594516004830155955160059091018054909516901515179093557f7cb630d146436defe02f120e4c839c242f8b65efc3c28d82b113b73e8a81c2918452918120805492830181558152919091200180546001600160a01b0319166001600160a01b0392909216919091179055565b60008281527f99574a7094154bb123ae6ae102096f0bf9679b85a5cd1e727aaa0ae5f132e6b46020908152604090912082517f99574a7094154bb123ae6ae102096f0bf9679b85a5cd1e727aaa0ae5f132e6b192611764929190850190614a96565b6132348282613d13565b5050565b600061092f82613812565b826001600160a01b031661325682612890565b6001600160a01b0316146132d25760405162461bcd60e51b815260206004820152602960248201527f4552433732313a207472616e73666572206f6620746f6b656e2074686174206960448201527f73206e6f74206f776e00000000000000000000000000000000000000000000006064820152608401610a8d565b6001600160a01b03821661334d5760405162461bcd60e51b8152602060048201526024808201527f4552433732313a207472616e7366657220746f20746865207a65726f2061646460448201527f72657373000000000000000000000000000000000000000000000000000000006064820152608401610a8d565b613358838383613dab565b613363600082612349565b6001600160a01b03831660009081527f3c7bf052874fa81625121783266a03507bd2cd48b16e571c01a04e8dd3fb07a8602052604090207f3c7bf052874fa81625121783266a03507bd2cd48b16e571c01a04e8dd3fb07a6906133c69083613db6565b506001600160a01b038316600090815260028201602052604090206133eb9083613dc2565b506133f7818385613dce565b5081836001600160a01b0316856001600160a01b03167fddf252ad1be2c89b69c2b068fc378daa952ba7f163c4a11628f55a4df523b3ef60405160405180910390a450505050565b60008181527f7cb630d146436defe02f120e4c839c242f8b65efc3c28d82b113b73e8a81c29060209081526040808320547f7cb630d146436defe02f120e4c839c242f8b65efc3c28d82b113b73e8a81c291909252909120546000805160206154728339815191529160ff1611156134f0576000918252600701602090815260408220805460018101825590835291200180546001600160a01b0319166001600160a01b0392909216919091179055565b60005b60008381526007830160205260409020546135109060019061516a565b8110156135b8576000838152600783016020526040902061353282600161523e565b8154811061354257613542615181565b600091825260208083209091015485835260078501909152604090912080546001600160a01b03909216918390811061357d5761357d615181565b600091825260209091200180546001600160a01b0319166001600160a01b0392909216919091179055806135b081615197565b9150506134f3565b50600082815260078201602052604090208054806135d8576135d8615256565b60008281526020808220830160001990810180546001600160a01b0319908116909155930190935584815260078401835260408120805460018101825590825292902090910180546001600160a01b0386169216919091179055505050565b6001600160a01b038216600090815260028401602052604081206125ad9083613de4565b606060ff821661369e57505060408051808201909152600781527f4342455f43433000000000000000000000000000000000000000000000000000602082015290565b600160ff831614156136e357505060408051808201909152600781527f4342455f45435200000000000000000000000000000000000000000000000000602082015290565b600260ff8316141561372857505060408051808201909152600881527f4342455f4e454352000000000000000000000000000000000000000000000000602082015290565b600360ff8316141561376d57505060408051808201909152600b81527f4342455f4e4543525f4853000000000000000000000000000000000000000000602082015290565b600460ff831614156137b257505060408051808201909152600681527f4342455f50520000000000000000000000000000000000000000000000000000602082015290565b505060408051808201909152600981527f4342455f50525f48530000000000000000000000000000000000000000000000602082015290565b919050565b6000806137fd8484613df0565b50949350505050565b6000610be18383613e0c565b600061092f825490565b60006001600160a01b0384163b613835575060016125ad565b60006138e063150b7a0260e01b33888787604051602401613859949392919061526c565b604051602081830303815290604052907bffffffffffffffffffffffffffffffffffffffffffffffffffffffff19166020820180517bffffffffffffffffffffffffffffffffffffffffffffffffffffffff838183161783525050505060405180606001604052806032815260200161540f603291396001600160a01b0388169190613e9d565b90506000818060200190518101906138f891906152a8565b6001600160e01b031916630a85bd0160e11b1492505050949350505050565b60008181526001830160205260408120541515610be1565b600061393b8383613eac565b6000613947848461403a565b60008581527f7cb630d146436defe02f120e4c839c242f8b65efc3c28d82b113b73e8a81c2906020526040812060030154919250600080516020615472833981519152917f3038aceb20aeb59f48d6bf8fd13e020bec41e77992f7e7e4e936e030912d10f791906139b8908761516a565b60008881526002808501602052604090912001549091506139da908290612e56565b6139e4908561523e565b979650505050505050565b600080806000198587098587029250828110838203039150508060001415613a2a57838281613a2057613a20615200565b0492505050610be1565b838110613a6d576040517f773cc18c0000000000000000000000000000000000000000000000000000000081526004810182905260248101859052604401610a8d565b60008486880960026001871981018816978890046003810283188082028403028082028403028082028403028082028403028082028403029081029092039091026000889003889004909101858311909403939093029303949094049190911702949350505050565b60008080600019848609848602925082811083820303915050670de0b6b3a76400008110613b33576040517fd31b340200000000000000000000000000000000000000000000000000000000815260048101829052602401610a8d565b600080670de0b6b3a76400008688099150506706f05b59d3b1ffff811182613b6d5780670de0b6b3a764000085040194505050505061092f565b6204000082850304939091119091037d40000000000000000000000000000000000000000000000000000000000002919091177faccb18165bd6fe31ae1cf318dc5b51eee0e1ba569b88cd74c1773b91fac106690201905092915050565b6001600160a01b038216613c215760405162461bcd60e51b815260206004820181905260248201527f4552433732313a206d696e7420746f20746865207a65726f20616464726573736044820152606401610a8d565b7f3c7bf052874fa81625121783266a03507bd2cd48b16e571c01a04e8dd3fb07a6613c4c8183612a51565b15613c995760405162461bcd60e51b815260206004820152601c60248201527f4552433732313a20746f6b656e20616c7265616479206d696e746564000000006044820152606401610a8d565b613ca560008484613dab565b6001600160a01b03831660009081526002820160205260409020613cc99083613dc2565b50613cd5818385613dce565b5060405182906001600160a01b038516906000907fddf252ad1be2c89b69c2b068fc378daa952ba7f163c4a11628f55a4df523b3ef908290a4505050565b60058160ff161115613d675760405162461bcd60e51b815260206004820152600f60248201527f496e76616c6964204c6963656e736500000000000000000000000000000000006044820152606401610a8d565b60007f958f4f9db6ce87299d2b6ad9a012c8ea9d207ed3b27d2894b9c8a6036c2271e96000938452602052506040909120805460ff191660ff909216919091179055565b610b2e838383614267565b6000610be18383614272565b6000610be1838361433f565b60006125ad84846001600160a01b03851661438e565b6000610be1838361442b565b6000808080613dff86866144b1565b9097909650945050505050565b600081815260018301602052604081205480613e6a5760405162461bcd60e51b815260206004820152601e60248201527f456e756d657261626c654d61703a206e6f6e6578697374656e74206b657900006044820152606401610a8d565b836000016001820381548110613e8257613e82615181565b90600052602060002090600202016001015491505092915050565b60606125ad848460008561454e565b60008281527f7cb630d146436defe02f120e4c839c242f8b65efc3c28d82b113b73e8a81c2906020526040812060030154600080516020615472833981519152917f3038aceb20aeb59f48d6bf8fd13e020bec41e77992f7e7e4e936e030912d10f791613f19908561516a565b6000868152600280850160205260408220015491925090613f3b908390612e56565b905060005b60008781526002850160205260409020548110156140025760008781526002850160205260408120805483908110613f7a57613f7a615181565b60009182526020808320909101548a835260028801825260408084206001600160a01b03909216808552600192909201909252912054909150613fbe908490612e56565b6001600160a01b038216600090815260038701602052604081208054909190613fe890849061523e565b90915550829150613ffa905081615197565b915050613f40565b508085877f203f543c39cd9297a8eb66a22189a127d3e94b5e54d52bfef63fec603138edf160405160405180910390a4505050505050565b60008281527f7cb630d146436defe02f120e4c839c242f8b65efc3c28d82b113b73e8a81c2916020908152604080832080548251818502810185019093528083526000805160206154728339815191529385939291908301828280156140c957602002820191906000526020600020905b81546001600160a01b031681526001909101906020018083116140ab575b50505050509050600181510381528051600014156140ec5760009250505061092f565b600085815260068301602052604081206003015461410a908661516a565b600087815260068501602052604081206001808201546002830154600490930154949550929361416c93869390929091614144919061516a565b60008c815260068a0160205260409020546141649060019060ff166152c5565b60ff16614660565b905060005b815181101561420c5781818151811061418c5761418c615181565b60200260200101518560080160008760070160008c815260200190815260200160002084815481106141c0576141c0615181565b60009182526020808320909101546001600160a01b03168352820192909252604001812080549091906141f490849061523e565b9091555081905061420481615197565b915050614171565b50600087815260068501602052604090206001015461422c908390612e56565b94508486887f0362ef0ca7c60bdd7789f855ba29ed06265c4c942f6562c9e0007dbcb1e107c760405160405180910390a45050505092915050565b610b2e8383836147bb565b60008181526001830160205260408120548015614335578354600090859060001981019081106142a4576142a4615181565b90600052602060002001549050808560000160018403815481106142ca576142ca615181565b60009182526020808320909101929092559182526001860190526040902081905583548490806142fc576142fc615256565b6001900381819060005260206000200160009055905583600101600084815260200190815260200160002060009055600191505061092f565b600091505061092f565b60008181526001830160205260408120546143865750815460018181018455600084815260208082209093018490558454848252828601909352604090209190915561092f565b50600061092f565b6000828152600184016020526040812054806143f3575050604080518082018252838152602080820184815286546001818101895560008981528481209551600290930290950191825591519082015586548684528188019092529290912055610be1565b8285600001600183038154811061440c5761440c615181565b9060005260206000209060020201600101819055506000915050610be1565b815460009082106144895760405162461bcd60e51b815260206004820152602260248201527f456e756d657261626c655365743a20696e646578206f7574206f6620626f756e604482015261647360f01b6064820152608401610a8d565b82600001828154811061449e5761449e615181565b9060005260206000200154905092915050565b8154600090819083106145115760405162461bcd60e51b815260206004820152602260248201527f456e756d657261626c654d61703a20696e646578206f7574206f6620626f756e604482015261647360f01b6064820152608401610a8d565b600084600001848154811061452857614528615181565b906000526020600020906002020190508060000154816001015492509250509250929050565b6060843b6145c45760405162461bcd60e51b815260206004820152602b60248201527f416464726573735574696c733a2066756e6374696f6e2063616c6c20746f206e60448201527f6f6e2d636f6e74726163740000000000000000000000000000000000000000006064820152608401610a8d565b600080866001600160a01b031685876040516145e091906152e8565b60006040518083038185875af1925050503d806000811461461d576040519150601f19603f3d011682016040523d82523d6000602084013e614622565b606091505b509150915081156146365791506125ad9050565b8051156146465780518082602001fd5b8360405162461bcd60e51b8152600401610a8d9190614be7565b6060600061466e84846147ff565b905060008167ffffffffffffffff81111561468b5761468b614e78565b6040519080825280602002602001820160405280156146b4578160200160208202803683370190505b50905060015b6146c583600161523e565b8110156147af57600087670de0b6b3a7640000146147645760006146e98986614815565b6146fb90670de0b6b3a7640000615304565b9050600061471461470d60018661516a565b8b90614815565b905060006147228d8d6148e5565b9050600061474261473b8d670de0b6b3a7640000615304565b83906148e5565b90508361474f8483615343565b61475991906153ca565b945050505050614775565b614772846120ec8c8c612e56565b90505b8083614781848761516a565b8151811061479157614791615181565b602090810291909101015250806147a781615197565b9150506146ba565b50979650505050505050565b6001600160a01b038216610b2e5760008181527f99574a7094154bb123ae6ae102096f0bf9679b85a5cd1e727aaa0ae5f132e6b460205260408120610b2e91614b0a565b600081831061480e5781610be1565b5090919050565b600080614821846149dc565b9050600080846001161161483d57670de0b6b3a764000061483f565b815b9050600184901c5b8015614877576148578384613ad6565b9250600181161561486f5761486c8284613ad6565b91505b60011c614847565b6001600160ff1b038211156148bb576040517fffb15bcd00000000000000000000000000000000000000000000000000000000815260048101839052602401610a8d565b600080871280156148cf5750856001166001145b9050806148dc57826139e4565b6139e4836153f8565b6000600160ff1b8314806148fc5750600160ff1b82145b15614933576040517f3406846c00000000000000000000000000000000000000000000000000000000815260040160405180910390fd5b600080600085126149445784614949565b846000035b915060008412614959578361495e565b836000035b9050600061496c8383613ad6565b90506001600160ff1b038111156149b2576040517fbf79e8d900000000000000000000000000000000000000000000000000000000815260048101829052602401610a8d565b6000198087139086138082186001146149cb57826149d0565b826000035b98975050505050505050565b6000600160ff1b821415614a1c576040517f741d0b8c00000000000000000000000000000000000000000000000000000000815260040160405180910390fd5b60008212614a2a578161092f565b5060000390565b828054828255906000526020600020908101928215614a86579160200282015b82811115614a8657825182546001600160a01b0319166001600160a01b03909116178255602090920191600190910190614a51565b50614a92929150614b47565b5090565b828054614aa290615119565b90600052602060002090601f016020900481019282614ac45760008555614a86565b82601f10614add57805160ff1916838001178555614a86565b82800160010185558215614a86579182015b82811115614a86578251825591602001919060010190614aef565b508054614b1690615119565b6000825580601f10614b26575050565b601f016020900490600052602060002090810190614b449190614b47565b50565b5b80821115614a925760008155600101614b48565b6001600160e01b031981168114614b4457600080fd5b600060208284031215614b8457600080fd5b8135610be181614b5c565b60005b83811015614baa578181015183820152602001614b92565b838111156117645750506000910152565b60008151808452614bd3816020860160208601614b8f565b601f01601f19169290920160200192915050565b602081526000610be16020830184614bbb565b600060208284031215614c0c57600080fd5b5035919050565b6001600160a01b0381168114614b4457600080fd5b60008060408385031215614c3b57600080fd5b8235614c4681614c13565b946020939093013593505050565b600080600080600060808688031215614c6c57600080fd5b8535614c7781614c13565b94506020860135614c8781614c13565b935060408601359250606086013567ffffffffffffffff80821115614cab57600080fd5b818801915088601f830112614cbf57600080fd5b813581811115614cce57600080fd5b896020828501011115614ce057600080fd5b9699959850939650602001949392505050565b600080600060608486031215614d0857600080fd5b8335614d1381614c13565b92506020840135614d2381614c13565b929592945050506040919091013590565b600060208284031215614d4657600080fd5b8135610be181614c13565b600080600060608486031215614d6657600080fd5b833592506020840135614d2381614c13565b60008060408385031215614d8b57600080fd5b50508035926020909101359150565b600081518084526020808501945080840160005b83811015614dd35781516001600160a01b031687529582019590820190600101614dae565b509495945050505050565b60ff8716815285602082015284604082015283606082015282608082015260c060a082015260006149d060c0830184614d9a565b838152826020820152606060408201526000614e316060830184614d9a565b95945050505050565b60008060408385031215614e4d57600080fd5b8235614e5881614c13565b915060208301358015158114614e6d57600080fd5b809150509250929050565b634e487b7160e01b600052604160045260246000fd5b600067ffffffffffffffff80841115614ea957614ea9614e78565b604051601f8501601f19908116603f01168101908282118183101715614ed157614ed1614e78565b81604052809350858152868686011115614eea57600080fd5b858560208301376000602087830101525050509392505050565b60008060008060808587031215614f1a57600080fd5b8435614f2581614c13565b93506020850135614f3581614c13565b925060408501359150606085013567ffffffffffffffff811115614f5857600080fd5b8501601f81018713614f6957600080fd5b614f7887823560208401614e8e565b91505092959194509250565b803560ff811681146137eb57600080fd5b600082601f830112614fa657600080fd5b610be183833560208501614e8e565b600080600080600080600060e0888a031215614fd057600080fd5b8735614fdb81614c13565b965060208801359550614ff060408901614f84565b9450606088013593506080880135925061500c60a08901614f84565b915060c088013567ffffffffffffffff81111561502857600080fd5b6150348a828b01614f95565b91505092959891949750929550565b6000806040838503121561505657600080fd5b823561506181614c13565b91506020830135614e6d81614c13565b60008060008060008060c0878903121561508a57600080fd5b863561509581614c13565b95506150a360208801614f84565b945060408701359350606087013592506150bf60808801614f84565b915060a087013567ffffffffffffffff8111156150db57600080fd5b6150e789828a01614f95565b9150509295509295509295565b6000806040838503121561510757600080fd5b823591506020830135614e6d81614c13565b600181811c9082168061512d57607f821691505b6020821081141561514e57634e487b7160e01b600052602260045260246000fd5b50919050565b634e487b7160e01b600052601160045260246000fd5b60008282101561517c5761517c615154565b500390565b634e487b7160e01b600052603260045260246000fd5b60006000198214156151ab576151ab615154565b5060010190565b600083516151c4818460208801614b8f565b8351908301906151d8818360208801614b8f565b01949350505050565b60008160001904831182151516156151fb576151fb615154565b500290565b634e487b7160e01b600052601260045260246000fd5b60008261522557615225615200565b500490565b60008261523957615239615200565b500690565b6000821982111561525157615251615154565b500190565b634e487b7160e01b600052603160045260246000fd5b60006001600160a01b0380871683528086166020840152508360408301526080606083015261529e6080830184614bbb565b9695505050505050565b6000602082840312156152ba57600080fd5b8151610be181614b5c565b600060ff821660ff8416808210156152df576152df615154565b90039392505050565b600082516152fa818460208701614b8f565b9190910192915050565b600080831283600160ff1b0183128115161561532257615322615154565b836001600160ff1b0301831381161561533d5761533d615154565b50500390565b60006001600160ff1b0360008413600084138583048511828216161561536b5761536b615154565b600160ff1b600087128682058812818416161561538a5761538a615154565b600087129250878205871284841616156153a6576153a6615154565b878505871281841616156153bc576153bc615154565b505050929093029392505050565b6000826153d9576153d9615200565b600160ff1b8214600019841416156153f3576153f3615154565b500590565b6000600160ff1b821415614a2a57614a2a61515456fe4552433732313a207472616e7366657220746f206e6f6e20455243373231526563656976657220696d706c656d656e74657261723a2f2f5f44396b4e3157724e576243713535425341475262544234625333763851415054596d42546853625833412f7cb630d146436defe02f120e4c839c242f8b65efc3c28d82b113b73e8a81c28aa26469706673582212208c3591c42462e85752350df87014aef3fe89f092027e8fc79c8ac1c07fa704f164736f6c63430008080033",
  "devdoc": {
    "kind": "dev",
    "methods": {
      "approve(address,uint256)": {
        "params": {
          "operator": "address to be approved",
          "tokenId": "token to approve"
        }
      },
      "balanceOf(address)": {
        "returns": {
          "_0": "quantity of tokens held"
        }
      },
      "getApproved(uint256)": {
        "params": {
          "tokenId": "token to query"
        },
        "returns": {
          "_0": "address approved to spend token"
        }
      },
      "isApprovedForAll(address,address)": {
        "params": {
          "account": "address to query for approval granted",
          "operator": "address to query for approval received"
        },
        "returns": {
          "_0": "whether operator is approved to spend tokens held by account"
        }
      },
      "ownerOf(uint256)": {
        "params": {
          "tokenId": "token to query"
        },
        "returns": {
          "_0": "token owner"
        }
      },
      "safeTransferFrom(address,address,uint256)": {
        "params": {
          "from": "sender of token",
          "to": "receiver of token",
          "tokenId": "token id"
        }
      },
      "safeTransferFrom(address,address,uint256,bytes)": {
        "params": {
          "data": "data payload",
          "from": "sender of token",
          "to": "receiver of token",
          "tokenId": "token id"
        }
      },
      "setApprovalForAll(address,bool)": {
        "params": {
          "operator": "address to be approved",
          "status": "approval status"
        }
      },
      "supportsInterface(bytes4)": {
        "params": {
          "interfaceId": "interface id"
        },
        "returns": {
          "_0": "bool whether interface is supported"
        }
      },
      "tokenByIndex(uint256)": {
        "params": {
          "index": "position in global token list to query"
        },
        "returns": {
          "_0": "id of retrieved token"
        }
      },
      "tokenOfOwnerByIndex(address,uint256)": {
        "params": {
          "index": "position in owner's token list to query",
          "owner": "token holder to query"
        },
        "returns": {
          "_0": "id of retrieved token"
        }
      },
      "totalSupply()": {
        "returns": {
          "_0": "total supply"
        }
      },
      "transferFrom(address,address,uint256)": {
        "params": {
          "from": "sender of token",
          "to": "receiver of token",
          "tokenId": "token id"
        }
      }
    },
    "version": 1
  },
  "userdoc": {
    "errors": {
      "PRBMathSD59x18__AbsInputTooSmall()": [
        {
          "notice": "Emitted when the input is MIN_SD59x18."
        }
      ],
      "PRBMathSD59x18__MulInputTooSmall()": [
        {
          "notice": "Emitted when one of the inputs is MIN_SD59x18."
        }
      ],
      "PRBMathSD59x18__MulOverflow(uint256)": [
        {
          "notice": "Emitted when the intermediary absolute result overflows SD59x18."
        }
      ],
      "PRBMathSD59x18__PowuOverflow(uint256)": [
        {
          "notice": "Emitted when the intermediary absolute result overflows SD59x18."
        }
      ],
      "PRBMath__MulDivFixedPointOverflow(uint256)": [
        {
          "notice": "Emitted when the result overflows uint256."
        }
      ],
      "PRBMath__MulDivOverflow(uint256,uint256)": [
        {
          "notice": "Emitted when the result overflows uint256."
        }
      ]
    },
    "kind": "user",
    "methods": {
      "approve(address,uint256)": {
        "notice": "grant approval to given account to spend token"
      },
      "balanceOf(address)": {
        "notice": "query the balance of given address"
      },
      "getApproved(uint256)": {
        "notice": "get approval status for given token"
      },
      "isApprovedForAll(address,address)": {
        "notice": "query approval status of given operator with respect to given address"
      },
      "name()": {
        "notice": "inheritdoc IERC721Metadata"
      },
      "ownerOf(uint256)": {
        "notice": "query the owner of given token"
      },
      "safeTransferFrom(address,address,uint256)": {
        "notice": "transfer token between given addresses, checking for ERC721Receiver implementation if applicable"
      },
      "safeTransferFrom(address,address,uint256,bytes)": {
        "notice": "transfer token between given addresses, checking for ERC721Receiver implementation if applicable"
      },
      "setApprovalForAll(address,bool)": {
        "notice": "grant approval to or revoke approval from given account to spend all tokens held by sender"
      },
      "supportsInterface(bytes4)": {
        "notice": "query whether contract has registered support for given interface"
      },
      "symbol()": {
        "notice": "inheritdoc IERC721Metadata"
      },
      "tokenByIndex(uint256)": {
        "notice": "get token at given internal storage index"
      },
      "tokenOfOwnerByIndex(address,uint256)": {
        "notice": "get token of given owner at given internal storage index"
      },
      "tokenURI(uint256)": {
        "notice": "inheritdoc IERC721Metadata"
      },
      "totalSupply()": {
        "notice": "get total token supply"
      },
      "transferFrom(address,address,uint256)": {
        "notice": "transfer token between given addresses, without checking for ERC721Receiver implementation if applicable"
      }
    },
    "version": 1
  },
  "storageLayout": {
    "storage": [],
    "types": null
  }
}