{
  "address": "0xb741e0c831683A27AcE672A9C73A7E3Ea1De5D60",
  "abi": [
    {
      "inputs": [],
      "name": "PRBMathSD59x18__AbsInputTooSmall",
      "type": "error"
    },
    {
      "inputs": [],
      "name": "PRBMathSD59x18__MulInputTooSmall",
      "type": "error"
    },
    {
      "inputs": [
        {
          "internalType": "uint256",
          "name": "rAbs",
          "type": "uint256"
        }
      ],
      "name": "PRBMathSD59x18__MulOverflow",
      "type": "error"
    },
    {
      "inputs": [
        {
          "internalType": "uint256",
          "name": "rAbs",
          "type": "uint256"
        }
      ],
      "name": "PRBMathSD59x18__PowuOverflow",
      "type": "error"
    },
    {
      "inputs": [
        {
          "internalType": "uint256",
          "name": "prod1",
          "type": "uint256"
        }
      ],
      "name": "PRBMath__MulDivFixedPointOverflow",
      "type": "error"
    },
    {
      "inputs": [
        {
          "internalType": "uint256",
          "name": "prod1",
          "type": "uint256"
        },
        {
          "internalType": "uint256",
          "name": "denominator",
          "type": "uint256"
        }
      ],
      "name": "PRBMath__MulDivOverflow",
      "type": "error"
    },
    {
      "anonymous": false,
      "inputs": [
        {
          "indexed": true,
          "internalType": "address",
          "name": "owner",
          "type": "address"
        },
        {
          "indexed": true,
          "internalType": "address",
          "name": "operator",
          "type": "address"
        },
        {
          "indexed": true,
          "internalType": "uint256",
          "name": "tokenId",
          "type": "uint256"
        }
      ],
      "name": "Approval",
      "type": "event"
    },
    {
      "anonymous": false,
      "inputs": [
        {
          "indexed": true,
          "internalType": "address",
          "name": "owner",
          "type": "address"
        },
        {
          "indexed": true,
          "internalType": "address",
          "name": "operator",
          "type": "address"
        },
        {
          "indexed": false,
          "internalType": "bool",
          "name": "approved",
          "type": "bool"
        }
      ],
      "name": "ApprovalForAll",
      "type": "event"
    },
    {
      "anonymous": false,
      "inputs": [
        {
          "indexed": true,
          "internalType": "uint256",
          "name": "tokenId",
          "type": "uint256"
        },
        {
          "indexed": true,
          "internalType": "uint256",
          "name": "salePrice",
          "type": "uint256"
        }
      ],
      "name": "Bought",
      "type": "event"
    },
    {
      "anonymous": false,
      "inputs": [
        {
          "indexed": true,
          "internalType": "address",
          "name": "account",
          "type": "address"
        },
        {
          "indexed": true,
          "internalType": "uint256",
          "name": "amount",
          "type": "uint256"
        }
      ],
      "name": "FRClaimed",
      "type": "event"
    },
    {
      "anonymous": false,
      "inputs": [
        {
          "indexed": true,
          "internalType": "uint256",
          "name": "tokenId",
          "type": "uint256"
        },
        {
          "indexed": true,
          "internalType": "uint256",
          "name": "soldPrice",
          "type": "uint256"
        },
        {
          "indexed": true,
          "internalType": "uint256",
          "name": "allocatedFR",
          "type": "uint256"
        }
      ],
      "name": "FRDistributed",
      "type": "event"
    },
    {
      "anonymous": false,
      "inputs": [
        {
          "indexed": true,
          "internalType": "uint256",
          "name": "tokenId",
          "type": "uint256"
        },
        {
          "indexed": true,
          "internalType": "uint256",
          "name": "salePrice",
          "type": "uint256"
        }
      ],
      "name": "Listed",
      "type": "event"
    },
    {
      "anonymous": false,
      "inputs": [
        {
          "indexed": true,
          "internalType": "address",
          "name": "account",
          "type": "address"
        },
        {
          "indexed": true,
          "internalType": "uint256",
          "name": "amount",
          "type": "uint256"
        }
      ],
      "name": "ORClaimed",
      "type": "event"
    },
    {
      "anonymous": false,
      "inputs": [
        {
          "indexed": true,
          "internalType": "uint256",
          "name": "tokenId",
          "type": "uint256"
        },
        {
          "indexed": true,
          "internalType": "uint256",
          "name": "soldPrice",
          "type": "uint256"
        },
        {
          "indexed": true,
          "internalType": "uint256",
          "name": "allocatedFR",
          "type": "uint256"
        }
      ],
      "name": "ORDistributed",
      "type": "event"
    },
    {
      "anonymous": false,
      "inputs": [
        {
          "indexed": true,
          "internalType": "address",
          "name": "from",
          "type": "address"
        },
        {
          "indexed": true,
          "internalType": "address",
          "name": "to",
          "type": "address"
        },
        {
          "indexed": true,
          "internalType": "uint256",
          "name": "tokenId",
          "type": "uint256"
        }
      ],
      "name": "OTokenTransfer",
      "type": "event"
    },
    {
      "anonymous": false,
      "inputs": [
        {
          "indexed": true,
          "internalType": "uint256",
          "name": "tokenId",
          "type": "uint256"
        }
      ],
      "name": "OTokensDistributed",
      "type": "event"
    },
    {
      "anonymous": false,
      "inputs": [
        {
          "indexed": true,
          "internalType": "address",
          "name": "from",
          "type": "address"
        },
        {
          "indexed": true,
          "internalType": "address",
          "name": "to",
          "type": "address"
        },
        {
          "indexed": true,
          "internalType": "uint256",
          "name": "tokenId",
          "type": "uint256"
        }
      ],
      "name": "Transfer",
      "type": "event"
    },
    {
      "anonymous": false,
      "inputs": [
        {
          "indexed": true,
          "internalType": "uint256",
          "name": "tokenId",
          "type": "uint256"
        }
      ],
      "name": "Unlisted",
      "type": "event"
    },
    {
      "inputs": [
        {
          "internalType": "address",
          "name": "operator",
          "type": "address"
        },
        {
          "internalType": "uint256",
          "name": "tokenId",
          "type": "uint256"
        }
      ],
      "name": "approve",
      "outputs": [],
      "stateMutability": "payable",
      "type": "function"
    },
    {
      "inputs": [
        {
          "internalType": "address",
          "name": "account",
          "type": "address"
        }
      ],
      "name": "balanceOf",
      "outputs": [
        {
          "internalType": "uint256",
          "name": "",
          "type": "uint256"
        }
      ],
      "stateMutability": "view",
      "type": "function"
    },
    {
      "inputs": [
        {
          "internalType": "uint256",
          "name": "tokenId",
          "type": "uint256"
        },
        {
          "internalType": "address",
          "name": "account",
          "type": "address"
        }
      ],
      "name": "balanceOfOTokens",
      "outputs": [
        {
          "internalType": "uint256",
          "name": "",
          "type": "uint256"
        }
      ],
      "stateMutability": "view",
      "type": "function"
    },
    {
      "inputs": [
        {
          "internalType": "uint256",
          "name": "tokenId",
          "type": "uint256"
        }
      ],
      "name": "buy",
      "outputs": [],
      "stateMutability": "payable",
      "type": "function"
    },
    {
      "inputs": [
        {
          "internalType": "uint256",
          "name": "newManagerCut",
          "type": "uint256"
        }
      ],
      "name": "changeManagerCut",
      "outputs": [],
      "stateMutability": "nonpayable",
      "type": "function"
    },
    {
      "inputs": [
        {
          "internalType": "uint256",
          "name": "tokenId",
          "type": "uint256"
        }
      ],
      "name": "getApproved",
      "outputs": [
        {
          "internalType": "address",
          "name": "",
          "type": "address"
        }
      ],
      "stateMutability": "view",
      "type": "function"
    },
    {
      "inputs": [
        {
          "internalType": "uint256",
          "name": "tokenId",
          "type": "uint256"
        }
      ],
      "name": "getLicenseName",
      "outputs": [
        {
          "internalType": "string",
          "name": "",
          "type": "string"
        }
      ],
      "stateMutability": "view",
      "type": "function"
    },
    {
      "inputs": [
        {
          "internalType": "uint256",
          "name": "tokenId",
          "type": "uint256"
        }
      ],
      "name": "getLicenseURI",
      "outputs": [
        {
          "internalType": "string",
          "name": "",
          "type": "string"
        }
      ],
      "stateMutability": "view",
      "type": "function"
    },
    {
      "inputs": [
        {
          "internalType": "address",
          "name": "account",
          "type": "address"
        },
        {
          "internalType": "address",
          "name": "operator",
          "type": "address"
        }
      ],
      "name": "isApprovedForAll",
      "outputs": [
        {
          "internalType": "bool",
          "name": "",
          "type": "bool"
        }
      ],
      "stateMutability": "view",
      "type": "function"
    },
    {
      "inputs": [
        {
          "internalType": "uint256",
          "name": "tokenId",
          "type": "uint256"
        },
        {
          "internalType": "uint256",
          "name": "salePrice",
          "type": "uint256"
        }
      ],
      "name": "list",
      "outputs": [],
      "stateMutability": "nonpayable",
      "type": "function"
    },
    {
      "inputs": [
        {
          "internalType": "address",
          "name": "recipient",
          "type": "address"
        },
        {
          "internalType": "uint8",
          "name": "numGenerations",
          "type": "uint8"
        },
        {
          "internalType": "uint256",
          "name": "rewardRatio",
          "type": "uint256"
        },
        {
          "internalType": "uint256",
          "name": "ORatio",
          "type": "uint256"
        },
        {
          "internalType": "uint8",
          "name": "license",
          "type": "uint8"
        },
        {
          "internalType": "string",
          "name": "tokenURI",
          "type": "string"
        }
      ],
      "name": "mint",
      "outputs": [
        {
          "internalType": "uint256",
          "name": "tokenId",
          "type": "uint256"
        }
      ],
      "stateMutability": "nonpayable",
      "type": "function"
    },
    {
      "inputs": [],
      "name": "name",
      "outputs": [
        {
          "internalType": "string",
          "name": "",
          "type": "string"
        }
      ],
      "stateMutability": "view",
      "type": "function"
    },
    {
      "inputs": [
        {
          "internalType": "uint256",
          "name": "tokenId",
          "type": "uint256"
        }
      ],
      "name": "ownerOf",
      "outputs": [
        {
          "internalType": "address",
          "name": "",
          "type": "address"
        }
      ],
      "stateMutability": "view",
      "type": "function"
    },
    {
      "inputs": [
        {
          "internalType": "address payable",
          "name": "account",
          "type": "address"
        }
      ],
      "name": "releaseFR",
      "outputs": [],
      "stateMutability": "nonpayable",
      "type": "function"
    },
    {
      "inputs": [
        {
          "internalType": "address payable",
          "name": "account",
          "type": "address"
        }
      ],
      "name": "releaseOR",
      "outputs": [],
      "stateMutability": "nonpayable",
      "type": "function"
    },
    {
      "inputs": [
        {
          "internalType": "address",
          "name": "account",
          "type": "address"
        }
      ],
      "name": "retrieveAllottedFR",
      "outputs": [
        {
          "internalType": "uint256",
          "name": "",
          "type": "uint256"
        }
      ],
      "stateMutability": "view",
      "type": "function"
    },
    {
      "inputs": [
        {
          "internalType": "address",
          "name": "account",
          "type": "address"
        }
      ],
      "name": "retrieveAllottedOR",
      "outputs": [
        {
          "internalType": "uint256",
          "name": "",
          "type": "uint256"
        }
      ],
      "stateMutability": "view",
      "type": "function"
    },
    {
      "inputs": [
        {
          "internalType": "uint256",
          "name": "tokenId",
          "type": "uint256"
        }
      ],
      "name": "retrieveFRInfo",
      "outputs": [
        {
          "internalType": "uint8",
          "name": "numGenerations",
          "type": "uint8"
        },
        {
          "internalType": "uint256",
          "name": "percentOfProfit",
          "type": "uint256"
        },
        {
          "internalType": "uint256",
          "name": "successiveRatio",
          "type": "uint256"
        },
        {
          "internalType": "uint256",
          "name": "lastSoldPrice",
          "type": "uint256"
        },
        {
          "internalType": "uint256",
          "name": "ownerAmount",
          "type": "uint256"
        },
        {
          "internalType": "address[]",
          "name": "addressesInFR",
          "type": "address[]"
        }
      ],
      "stateMutability": "view",
      "type": "function"
    },
    {
      "inputs": [
        {
          "internalType": "uint256",
          "name": "tokenId",
          "type": "uint256"
        }
      ],
      "name": "retrieveListInfo",
      "outputs": [
        {
          "internalType": "uint256",
          "name": "",
          "type": "uint256"
        },
        {
          "internalType": "address",
          "name": "",
          "type": "address"
        },
        {
          "internalType": "bool",
          "name": "",
          "type": "bool"
        }
      ],
      "stateMutability": "view",
      "type": "function"
    },
    {
      "inputs": [],
      "name": "retrieveManagerInfo",
      "outputs": [
        {
          "internalType": "address",
          "name": "untradingManager",
          "type": "address"
        },
        {
          "internalType": "uint256",
          "name": "managerCut",
          "type": "uint256"
        }
      ],
      "stateMutability": "view",
      "type": "function"
    },
    {
      "inputs": [
        {
          "internalType": "uint256",
          "name": "tokenId",
          "type": "uint256"
        }
      ],
      "name": "retrieveORInfo",
      "outputs": [
        {
          "internalType": "uint256",
          "name": "ORatio",
          "type": "uint256"
        },
        {
          "internalType": "uint256",
          "name": "rewardRatio",
          "type": "uint256"
        },
        {
          "internalType": "address[]",
          "name": "holders",
          "type": "address[]"
        }
      ],
      "stateMutability": "view",
      "type": "function"
    },
    {
      "inputs": [
        {
          "internalType": "address",
          "name": "from",
          "type": "address"
        },
        {
          "internalType": "address",
          "name": "to",
          "type": "address"
        },
        {
          "internalType": "uint256",
          "name": "tokenId",
          "type": "uint256"
        }
      ],
      "name": "safeTransferFrom",
      "outputs": [],
      "stateMutability": "payable",
      "type": "function"
    },
    {
      "inputs": [
        {
          "internalType": "address",
          "name": "from",
          "type": "address"
        },
        {
          "internalType": "address",
          "name": "to",
          "type": "address"
        },
        {
          "internalType": "uint256",
          "name": "tokenId",
          "type": "uint256"
        },
        {
          "internalType": "bytes",
          "name": "data",
          "type": "bytes"
        }
      ],
      "name": "safeTransferFrom",
      "outputs": [],
      "stateMutability": "payable",
      "type": "function"
    },
    {
      "inputs": [
        {
          "internalType": "address",
          "name": "operator",
          "type": "address"
        },
        {
          "internalType": "bool",
          "name": "status",
          "type": "bool"
        }
      ],
      "name": "setApprovalForAll",
      "outputs": [],
      "stateMutability": "nonpayable",
      "type": "function"
    },
    {
      "inputs": [
        {
          "internalType": "bytes4",
          "name": "interfaceId",
          "type": "bytes4"
        }
      ],
      "name": "supportsInterface",
      "outputs": [
        {
          "internalType": "bool",
          "name": "",
          "type": "bool"
        }
      ],
      "stateMutability": "view",
      "type": "function"
    },
    {
      "inputs": [],
      "name": "symbol",
      "outputs": [
        {
          "internalType": "string",
          "name": "",
          "type": "string"
        }
      ],
      "stateMutability": "view",
      "type": "function"
    },
    {
      "inputs": [
        {
          "internalType": "uint256",
          "name": "index",
          "type": "uint256"
        }
      ],
      "name": "tokenByIndex",
      "outputs": [
        {
          "internalType": "uint256",
          "name": "",
          "type": "uint256"
        }
      ],
      "stateMutability": "view",
      "type": "function"
    },
    {
      "inputs": [
        {
          "internalType": "address",
          "name": "owner",
          "type": "address"
        },
        {
          "internalType": "uint256",
          "name": "index",
          "type": "uint256"
        }
      ],
      "name": "tokenOfOwnerByIndex",
      "outputs": [
        {
          "internalType": "uint256",
          "name": "",
          "type": "uint256"
        }
      ],
      "stateMutability": "view",
      "type": "function"
    },
    {
      "inputs": [
        {
          "internalType": "uint256",
          "name": "tokenId",
          "type": "uint256"
        }
      ],
      "name": "tokenURI",
      "outputs": [
        {
          "internalType": "string",
          "name": "",
          "type": "string"
        }
      ],
      "stateMutability": "view",
      "type": "function"
    },
    {
      "inputs": [],
      "name": "totalSupply",
      "outputs": [
        {
          "internalType": "uint256",
          "name": "",
          "type": "uint256"
        }
      ],
      "stateMutability": "view",
      "type": "function"
    },
    {
      "inputs": [
        {
          "internalType": "address",
          "name": "from",
          "type": "address"
        },
        {
          "internalType": "address",
          "name": "to",
          "type": "address"
        },
        {
          "internalType": "uint256",
          "name": "tokenId",
          "type": "uint256"
        }
      ],
      "name": "transferFrom",
      "outputs": [],
      "stateMutability": "payable",
      "type": "function"
    },
    {
      "inputs": [
        {
          "internalType": "uint256",
          "name": "tokenId",
          "type": "uint256"
        },
        {
          "internalType": "address",
          "name": "recipient",
          "type": "address"
        },
        {
          "internalType": "uint256",
          "name": "amount",
          "type": "uint256"
        }
      ],
      "name": "transferOTokens",
      "outputs": [],
      "stateMutability": "nonpayable",
      "type": "function"
    },
    {
      "inputs": [
        {
          "internalType": "uint256",
          "name": "tokenId",
          "type": "uint256"
        }
      ],
      "name": "unlist",
      "outputs": [],
      "stateMutability": "nonpayable",
      "type": "function"
    }
  ],
  "transactionHash": "0xd94a1ff8312979e4be7ebed1e995a83688e4adcfdaf088e96b76bf7a088079ec",
  "args": [],
  "numDeployments": 1,
  "solcInputHash": "598d4fd9cbbd87b57f688224e49d5f38",
  "bytecode": "0x608060405234801561001057600080fd5b506150ed806100206000396000f3fe6080604052600436106101fe5760003560e01c80636352211e1161011d578063bf5a4dd3116100b0578063e985e9c51161007f578063e9d8051811610064578063e9d80518146106a5578063ec4087411461070b578063fcf0dc701461078c57600080fd5b8063e985e9c514610665578063e9c927ce1461068557600080fd5b8063bf5a4dd3146105bd578063c87b56dd146105dd578063d96a094a146105fd578063de3764681461061057600080fd5b806380039a69116100ec57806380039a691461054657806395d89b4114610575578063a22cb4651461058a578063b88d4fde146105aa57600080fd5b80636352211e1461049157806364402634146104b157806369336e4f146104d157806370a082311461052657600080fd5b806332dea195116101955780634f6ccce7116101645780634f6ccce71461039057806350fd7367146103b05780635101ab53146103d057806351a15a7b1461040257600080fd5b806332dea1951461031d5780633b21b2151461033d5780633b2af2721461035d57806342842e0e1461037d57600080fd5b806318160ddd116101d157806318160ddd146102a757806323b872dd146102ca5780632f745c59146102dd57806330bafc65146102fd57600080fd5b806301ffc9a71461020357806306fdde0314610238578063081812fc1461025a578063095ea7b314610292575b600080fd5b34801561020f57600080fd5b5061022361021e3660046148d1565b6107ac565b60405190151581526020015b60405180910390f35b34801561024457600080fd5b5061024d610807565b60405161022f9190614946565b34801561026657600080fd5b5061027a610275366004614959565b6108b8565b6040516001600160a01b03909116815260200161022f565b6102a56102a0366004614987565b6108c3565b005b3480156102b357600080fd5b506102bc610a05565b60405190815260200161022f565b6102a56102d83660046149b3565b610a14565b3480156102e957600080fd5b506102bc6102f8366004614987565b610aa7565b34801561030957600080fd5b5061024d610318366004614959565b610aba565b34801561032957600080fd5b506102a56103383660046149f4565b610ac5565b34801561034957600080fd5b5061024d610358366004614959565b610c4b565b34801561036957600080fd5b506102a5610378366004614a11565b610c56565b6102a561038b3660046149b3565b610faa565b34801561039c57600080fd5b506102bc6103ab366004614959565b610fc5565b3480156103bc57600080fd5b506102a56103cb366004614a38565b610fd0565b3480156103dc57600080fd5b506103f06103eb366004614959565b611118565b60405161022f96959493929190614a9e565b34801561040e57600080fd5b5061046c61041d366004614959565b60009081527f7cb630d146436defe02f120e4c839c242f8b65efc3c28d82b113b73e8a81c29360205260409020805460019091015490916001600160a01b03821691600160a01b900460ff1690565b604080519384526001600160a01b03909216602084015215159082015260600161022f565b34801561049d57600080fd5b5061027a6104ac366004614959565b611219565b3480156104bd57600080fd5b506102a56104cc3660046149f4565b611224565b3480156104dd57600080fd5b506102bc6104ec3660046149f4565b6001600160a01b031660009081527f3038aceb20aeb59f48d6bf8fd13e020bec41e77992f7e7e4e936e030912d10fa602052604090205490565b34801561053257600080fd5b506102bc6105413660046149f4565b6113bc565b34801561055257600080fd5b50610566610561366004614959565b6113c7565b60405161022f93929190614ad2565b34801561058157600080fd5b5061024d61148d565b34801561059657600080fd5b506102a56105a5366004614afa565b6114be565b6102a56105b8366004614bc4565b6115a2565b3480156105c957600080fd5b506102a56105d8366004614959565b61163c565b3480156105e957600080fd5b5061024d6105f8366004614959565b611743565b6102a561060b366004614959565b6119b0565b34801561061c57600080fd5b506102bc61062b3660046149f4565b6001600160a01b031660009081527f7cb630d146436defe02f120e4c839c242f8b65efc3c28d82b113b73e8a81c292602052604090205490565b34801561067157600080fd5b50610223610680366004614c44565b611bc1565b34801561069157600080fd5b506102bc6106a0366004614c83565b611c10565b3480156106b157600080fd5b506102bc6106c0366004614d1a565b60009182527f3038aceb20aeb59f48d6bf8fd13e020bec41e77992f7e7e4e936e030912d10f9602090815260408084206001600160a01b039390931684526001909201905290205490565b34801561071757600080fd5b5061076d7f3038aceb20aeb59f48d6bf8fd13e020bec41e77992f7e7e4e936e030912d10f7547f3038aceb20aeb59f48d6bf8fd13e020bec41e77992f7e7e4e936e030912d10f8546001600160a01b0390911691565b604080516001600160a01b03909316835260208301919091520161022f565b34801561079857600080fd5b506102a56107a7366004614959565b611eaf565b7fffffffff00000000000000000000000000000000000000000000000000000000811660009081527f326d0c59a7612f6a9919e2a8ee333c80ba689d8ba2634de89c85cbb04832e705602052604081205460ff165b92915050565b60607f99574a7094154bb123ae6ae102096f0bf9679b85a5cd1e727aaa0ae5f132e6b1805461083590614d3f565b80601f016020809104026020016040519081016040528092919081815260200182805461086190614d3f565b80156108ae5780601f10610883576101008083540402835291602001916108ae565b820191906000526020600020905b81548152906001019060200180831161089157829003601f168201915b5050505050905090565b600061080182611f2f565b6108ce828234611feb565b60006108d982611219565b9050806001600160a01b0316836001600160a01b031614156109685760405162461bcd60e51b815260206004820152602160248201527f4552433732313a20617070726f76616c20746f2063757272656e74206f776e6560448201527f720000000000000000000000000000000000000000000000000000000000000060648201526084015b60405180910390fd5b336001600160a01b038216148061098457506109848133611bc1565b6109f65760405162461bcd60e51b815260206004820152603860248201527f4552433732313a20617070726f76652063616c6c6572206973206e6f74206f7760448201527f6e6572206e6f7220617070726f76656420666f7220616c6c0000000000000000606482015260840161095f565b610a00838361205f565b505050565b6000610a0f6120ec565b905090565b610a2083838334612117565b610a2a3382612190565b610a9c5760405162461bcd60e51b815260206004820152603060248201527f4552433732313a207472616e736665722063616c6c6572206973206e6f74206f60448201527f776e6572206f7220617070726f76656400000000000000000000000000000000606482015260840161095f565b610a008383836122cb565b6000610ab38383612489565b9392505050565b6060610801826124b6565b6001600160a01b03811660009081527f7cb630d146436defe02f120e4c839c242f8b65efc3c28d82b113b73e8a81c292602052604090205460008051602061509883398151915290610b595760405162461bcd60e51b815260206004820152601160248201527f4e6f204652205061796d656e7420647565000000000000000000000000000000604482015260640161095f565b6001600160a01b0382166000818152600883016020526040808220805490839055905190929083908381818185875af1925050503d8060008114610bb9576040519150601f19603f3d011682016040523d82523d6000602084013e610bbe565b606091505b5050905080610c0f5760405162461bcd60e51b815260206004820152601460248201527f4661696c656420746f2072656c65617365204652000000000000000000000000604482015260640161095f565b60405182906001600160a01b038616907f5a9202ceea6770814401fd72940be33fb25a4b30d55ca69183766ad7feb3e5ef90600090a350505050565b6060610801826124f7565b7f3038aceb20aeb59f48d6bf8fd13e020bec41e77992f7e7e4e936e030912d10f76001600160a01b038316610ccd5760405162461bcd60e51b815260206004820152601c60248201527f7472616e7366657220746f20746865207a65726f206164647265737300000000604482015260640161095f565b6001600160a01b038316331415610d195760405162461bcd60e51b815260206004820152601060248201526f3a3930b739b332b9103a379039b2b63360811b604482015260640161095f565b60008211610d695760405162461bcd60e51b815260206004820152601460248201527f7472616e7366657220616d6f756e742069732030000000000000000000000000604482015260640161095f565b6000848152600282016020908152604080832033845260010190915290205482811015610dd85760405162461bcd60e51b815260206004820152601f60248201527f7472616e7366657220616d6f756e7420657863656564732062616c616e636500604482015260640161095f565b6000858152600283016020908152604080832033845260010190915280822085840390556001600160a01b03861682529020805484019055610e1a8382614d90565b610f2f5760005b6000868152600284016020526040902054811015610ee65760008681526002840160205260409020805433919083908110610e5e57610e5e614da7565b6000918252602090912001546001600160a01b03161415610ed45760008681526002840160205260409020805486919083908110610e9e57610e9e614da7565b9060005260206000200160006101000a8154816001600160a01b0302191690836001600160a01b03160217905550505050505050565b80610ede81614dbd565b915050610e21565b5060405162461bcd60e51b815260206004820152600960248201527f4e6f7420466f756e640000000000000000000000000000000000000000000000604482015260640161095f565b600085815260028301602090815260408220805460018101825590835291200180546001600160a01b0319166001600160a01b0386169081179091558590336001600160a01b03167fcabb64bf74c3918e2dead3a14bbffbb72db126018e7ec25b6477447c50022fac60405160405180910390a45050505050565b610a00838383604051806020016040528060008152506115a2565b60006108018261257a565b610fda3383612190565b61104c5760405162461bcd60e51b815260206004820152602e60248201527f455243353137333a206c6973742063616c6c6572206973206e6f74206f776e6560448201527f72206e6f7220617070726f766564000000000000000000000000000000000000606482015260840161095f565b60408051606081018252828152336020808301918252600183850181815260008881527f7cb630d146436defe02f120e4c839c242f8b65efc3c28d82b113b73e8a81c2939093528583209451855592519301805492511515600160a01b0274ffffffffffffffffffffffffffffffffffffffffff199093166001600160a01b039094169390931791909117909155905160008051602061509883398151915291839185917f1ea45e30b31292f9d7c5d37d275b2feca555f13f47dce0fdea2f47e8852ecd7891a3505050565b60008181527f7cb630d146436defe02f120e4c839c242f8b65efc3c28d82b113b73e8a81c2906020908152604080832080546001820154600283015460038401546004909401547f7cb630d146436defe02f120e4c839c242f8b65efc3c28d82b113b73e8a81c291875285882080548751818a0281018a0190985280885289988998899889986060986000805160206150988339815191529860ff909216979096919592949093919283918301828280156111fc57602002820191906000526020600020905b81546001600160a01b031681526001909101906020018083116111de575b505050505090509650965096509650965096505091939550919395565b6000610801826125a6565b6001600160a01b03811660009081527f3038aceb20aeb59f48d6bf8fd13e020bec41e77992f7e7e4e936e030912d10fa60205260409020547f3038aceb20aeb59f48d6bf8fd13e020bec41e77992f7e7e4e936e030912d10f7906112ca5760405162461bcd60e51b815260206004820152601160248201527f4e6f204f52205061796d656e7420647565000000000000000000000000000000604482015260640161095f565b6001600160a01b0382166000818152600383016020526040808220805490839055905190929083908381818185875af1925050503d806000811461132a576040519150601f19603f3d011682016040523d82523d6000602084013e61132f565b606091505b50509050806113805760405162461bcd60e51b815260206004820152601460248201527f4661696c656420746f2072656c65617365204f52000000000000000000000000604482015260640161095f565b60405182906001600160a01b038616907f3feca93bd3b961b230c096b1ef22dba609260c0c044ff23600c1c76075b50a4690600090a350505050565b60006108018261262b565b60008181527f3038aceb20aeb59f48d6bf8fd13e020bec41e77992f7e7e4e936e030912d10f96020908152604080832060028101546003820154825484518187028101870190955280855286956060957f3038aceb20aeb59f48d6bf8fd13e020bec41e77992f7e7e4e936e030912d10f79592909183919083018282801561147857602002820191906000526020600020905b81546001600160a01b0316815260019091019060200180831161145a575b50505050509050935093509350509193909250565b60607f99574a7094154bb123ae6ae102096f0bf9679b85a5cd1e727aaa0ae5f132e6b1600101805461083590614d3f565b6001600160a01b0382163314156115175760405162461bcd60e51b815260206004820152601960248201527f4552433732313a20617070726f766520746f2063616c6c657200000000000000604482015260640161095f565b3360008181527f3c7bf052874fa81625121783266a03507bd2cd48b16e571c01a04e8dd3fb07aa602090815260408083206001600160a01b03871680855290835292819020805460ff191686151590811790915590519081529192917f17307eab39ab6107e8899845ad3d59bd9653f200f220920489ca2b5937696c31910160405180910390a35050565b6115ae84848434612117565b6115b83383612190565b61162a5760405162461bcd60e51b815260206004820152603060248201527f4552433732313a207472616e736665722063616c6c6572206973206e6f74206f60448201527f776e6572206f7220617070726f76656400000000000000000000000000000000606482015260840161095f565b611636848484846126e9565b50505050565b6116463382612190565b6116b85760405162461bcd60e51b815260206004820152603060248201527f455243353137333a20756e6c6973742063616c6c6572206973206e6f74206f7760448201527f6e6572206e6f7220617070726f76656400000000000000000000000000000000606482015260840161095f565b60008181527f7cb630d146436defe02f120e4c839c242f8b65efc3c28d82b113b73e8a81c2936020526040808220828155600101805474ffffffffffffffffffffffffffffffffffffffffff19169055516000805160206150988339815191529183917f6318005f6dc5a71d3e4ad5b4d1fe455ef3402d62b64573777af55bb6bfe3daab9190a25050565b6060611771827f3c7bf052874fa81625121783266a03507bd2cd48b16e571c01a04e8dd3fb07a65b90612767565b6117e35760405162461bcd60e51b815260206004820152602f60248201527f4552433732314d657461646174613a2055524920717565727920666f72206e6f60448201527f6e6578697374656e7420746f6b656e0000000000000000000000000000000000606482015260840161095f565b60008281527f99574a7094154bb123ae6ae102096f0bf9679b85a5cd1e727aaa0ae5f132e6b46020526040812080547f99574a7094154bb123ae6ae102096f0bf9679b85a5cd1e727aaa0ae5f132e6b192919061183f90614d3f565b80601f016020809104026020016040519081016040528092919081815260200182805461186b90614d3f565b80156118b85780601f1061188d576101008083540402835291602001916118b8565b820191906000526020600020905b81548152906001019060200180831161189b57829003601f168201915b5050505050905060008260020180546118d090614d3f565b80601f01602080910402602001604051908101604052809291908181526020018280546118fc90614d3f565b80156119495780601f1061191e57610100808354040283529160200191611949565b820191906000526020600020905b81548152906001019060200180831161192c57829003601f168201915b5050505050905080516000141561196257509392505050565b81511561199557808260405160200161197c929190614dd8565b6040516020818303038152906040529350505050919050565b8061199f86612773565b60405160200161197c929190614dd8565b60008181527f7cb630d146436defe02f120e4c839c242f8b65efc3c28d82b113b73e8a81c2936020526040902060019081015460008051602061509883398151915291600160a01b90910460ff16151514611a4d5760405162461bcd60e51b815260206004820152601360248201527f546f6b656e206973206e6f74206c697374656400000000000000000000000000604482015260640161095f565b60008281526009820160205260409020543414611aac5760405162461bcd60e51b815260206004820181905260248201527f73616c65507269636520616e64206d73672e76616c7565206d69736d61746368604482015260640161095f565b60005b6000838152600783016020526040902054811015611b615760008381526007830160205260409020805433919083908110611aec57611aec614da7565b6000918252602090912001546001600160a01b03161415611b4f5760405162461bcd60e51b815260206004820181905260248201527f416c726561647920696e2074686520465220736c6964696e672077696e646f77604482015260640161095f565b80611b5981614dbd565b915050611aaf565b50600082815260098201602052604090208054600190910154611b8f906001600160a01b03163385846128a5565b604051819084907f3ccb2ab6980b218b1dd4974b07365cd90a191e170c611da46262fecc208bd66190600090a3505050565b6001600160a01b0380831660009081527f3c7bf052874fa81625121783266a03507bd2cd48b16e571c01a04e8dd3fb07aa6020908152604080832093851683529290529081205460ff16610ab3565b600060058660ff1610158015611c2a575060148660ff1611155b611c9c5760405162461bcd60e51b815260206004820152602760248201527f6e756d47656e65726174696f6e73206d757374206265206265747765656e203560448201527f20616e6420323000000000000000000000000000000000000000000000000000606482015260840161095f565b66b1a2bc2ec500008510158015611cbb57506706f05b59d3b200008511155b611d2d5760405162461bcd60e51b815260206004820152602660248201527f726577617264526174696f206d757374206265206265747765656e203525206160448201527f6e64203530250000000000000000000000000000000000000000000000000000606482015260840161095f565b66b1a2bc2ec500008410158015611d4c57506706f05b59d3b200008411155b611dbe5760405162461bcd60e51b815260206004820152602160248201527f4f526174696f206d757374206265206265747765656e20352520616e6420353060448201527f2500000000000000000000000000000000000000000000000000000000000000606482015260840161095f565b60006064611e086716744a6d6e950000611de360ff8b16670de0b6b3a7640000614e07565b611ded9190614d90565b611e0260ff8b16670de0b6b3a7640000614e07565b90612b57565b611e129190614e3c565b611e1d906064614e07565b90506000611e3d611e3687670de0b6b3a7640000614d90565b8890612b6c565b9050611e498787612b6c565b9550611e53612b78565b7f0bec8ab077af1e12783ac8c970bca6dada042613c1ff87b4d0953dea6b0115fc54611e81818b898b612bb2565b611e8e8a828b8587612cdf565b611e988186612ede565b611ea28187612f40565b9998505050505050505050565b7f3038aceb20aeb59f48d6bf8fd13e020bec41e77992f7e7e4e936e030912d10f780546001600160a01b03163314611f295760405162461bcd60e51b815260206004820152601460248201527f43616c6c6572206e6f74207065726d6974746564000000000000000000000000604482015260640161095f565b60010155565b60007f3c7bf052874fa81625121783266a03507bd2cd48b16e571c01a04e8dd3fb07a6611f5c8184612767565b611fce5760405162461bcd60e51b815260206004820152602c60248201527f4552433732313a20617070726f76656420717565727920666f72206e6f6e657860448201527f697374656e7420746f6b656e0000000000000000000000000000000000000000606482015260840161095f565b60009283526003016020525060409020546001600160a01b031690565b8015610a005760405162461bcd60e51b815260206004820152602b60248201527f4552433732313a2070617961626c6520617070726f76652063616c6c73206e6f60448201527f7420737570706f72746564000000000000000000000000000000000000000000606482015260840161095f565b60008181527f3c7bf052874fa81625121783266a03507bd2cd48b16e571c01a04e8dd3fb07a96020526040902080546001600160a01b0319166001600160a01b03841690811790915581906120b3826125a6565b6001600160a01b03167f8c5be1e5ebec7d5bd14f71427d1e84f3dd0314c0f7b2291e5b200ac8c7c3b92560405160405180910390a45050565b6000610a0f7f3c7bf052874fa81625121783266a03507bd2cd48b16e571c01a04e8dd3fb07a6612f4e565b801561218b5760405162461bcd60e51b815260206004820152602c60248201527f4552433732313a2070617961626c65207472616e736665722063616c6c73206e60448201527f6f7420737570706f727465640000000000000000000000000000000000000000606482015260840161095f565b611636565b60006121bc827f3c7bf052874fa81625121783266a03507bd2cd48b16e571c01a04e8dd3fb07a661176b565b61222e5760405162461bcd60e51b815260206004820152602360248201527f4552433732313a20717565727920666f72206e6f6e6578697374656e7420746f60448201527f6b656e0000000000000000000000000000000000000000000000000000000000606482015260840161095f565b6000612239836125a6565b9050806001600160a01b0316846001600160a01b031614806122745750836001600160a01b031661226984611f2f565b6001600160a01b0316145b806122c357506001600160a01b0380821660009081527f3c7bf052874fa81625121783266a03507bd2cd48b16e571c01a04e8dd3fb07aa602090815260408083209388168352929052205460ff165b949350505050565b816001600160a01b0316836001600160a01b031614156123205760405162461bcd60e51b815260206004820152601060248201526f3a3930b739b332b9103a379039b2b63360811b604482015260640161095f565b61232b838383612f59565b60008051602061509883398151915260005b60008381526007830160205260409020548110156123f8576000838152600783016020526040902080546001600160a01b03861691908390811061238357612383614da7565b6000918252602090912001546001600160a01b031614156123e65760405162461bcd60e51b815260206004820181905260248201527f416c726561647920696e2074686520465220736c6964696e672077696e646f77604482015260640161095f565b806123f081614dbd565b91505061233d565b5060008281526009820160205260409020600190810154600160a01b900460ff16151514156124545760008281526009820160205260408120908155600101805474ffffffffffffffffffffffffffffffffffffffffff191690555b600082815260068201602052604081206003810182905560040180549161247a83614dbd565b91905055506116368383613155565b6000610ab37f3c7bf052874fa81625121783266a03507bd2cd48b16e571c01a04e8dd3fb07a6848461334d565b60008181527f958f4f9db6ce87299d2b6ad9a012c8ea9d207ed3b27d2894b9c8a6036c2271e9602081905260409091205460609190610ab39060ff16613371565b606060007f958f4f9db6ce87299d2b6ad9a012c8ea9d207ed3b27d2894b9c8a6036c2271e99050604051806060016040528060318152602001615067603191396000848152602083905260409020546125529060ff16612773565b604051602001612563929190614dd8565b604051602081830303815290604052915050919050565b60006108017f3c7bf052874fa81625121783266a03507bd2cd48b16e571c01a04e8dd3fb07a683613506565b6000806125d37f3c7bf052874fa81625121783266a03507bd2cd48b16e571c01a04e8dd3fb07a68461351c565b90506001600160a01b0381166108015760405162461bcd60e51b815260206004820152601560248201527f4552433732313a20696e76616c6964206f776e65720000000000000000000000604482015260640161095f565b60006001600160a01b0382166126a95760405162461bcd60e51b815260206004820152602a60248201527f4552433732313a2062616c616e636520717565727920666f7220746865207a6560448201527f726f206164647265737300000000000000000000000000000000000000000000606482015260840161095f565b6001600160a01b03821660009081527f3c7bf052874fa81625121783266a03507bd2cd48b16e571c01a04e8dd3fb07a86020526040902061080190613528565b6126f48484846122cb565b61270084848484613532565b6116365760405162461bcd60e51b815260206004820152603260248201527f4552433732313a207472616e7366657220746f206e6f6e20455243373231526560448201527131b2b4bb32b91034b6b83632b6b2b73a32b960711b606482015260840161095f565b6000610ab3838361365e565b6060816127b357505060408051808201909152600181527f3000000000000000000000000000000000000000000000000000000000000000602082015290565b8160005b81156127dd57806127c781614dbd565b91506127d69050600a83614e3c565b91506127b7565b60008167ffffffffffffffff8111156127f8576127f8614b38565b6040519080825280601f01601f191660200182016040528015612822576020820181803683370190505b5090505b84156122c357612837600183614d90565b9150612844600a86614e50565b61284f906030614e64565b60f81b81838151811061286457612864614da7565b60200101907effffffffffffffffffffffffffffffffffffffffffffffffffffffffffffff1916908160001a90535061289e600a86614e3c565b9450612826565b826001600160a01b0316846001600160a01b031614156128fa5760405162461bcd60e51b815260206004820152601060248201526f3a3930b739b332b9103a379039b2b63360811b604482015260640161095f565b612905848484612f59565b61292084848460405180602001604052806000815250613532565b6129875760405162461bcd60e51b815260206004820152603260248201527f4552433732313a207472616e7366657220746f206e6f6e20455243373231526560448201527131b2b4bb32b91034b6b83632b6b2b73a32b960711b606482015260840161095f565b60008281527f7cb630d146436defe02f120e4c839c242f8b65efc3c28d82b113b73e8a81c290602052604081206003015460008051602061509883398151915291908311612a095760008481526006830160205260408120600381018590556004018054916129f583614dbd565b9190505550612a048585613155565b612a4b565b612a138484613676565b6000858152600684016020526040812060038101869055600401805492935090612a3c83614dbd565b9190505550612a4b8585613155565b600084815260098301602052604081206001810180549183905574ffffffffffffffffffffffffffffffffffffffffff19821690556001600160a01b03169081612a958487614d90565b604051600081818185875af1925050503d8060008114612ad1576040519150601f19603f3d011682016040523d82523d6000602084013e612ad6565b606091505b5050905080612b4d5760405162461bcd60e51b815260206004820152602560248201527f455243353137333a204661696c656420746f2073656e642045544820746f206c60448201527f6973746572000000000000000000000000000000000000000000000000000000606482015260840161095f565b5050505050505050565b6000610ab383670de0b6b3a764000084613736565b6000610ab3838361381d565b60017f0bec8ab077af1e12783ac8c970bca6dada042613c1ff87b4d0953dea6b0115fc8054600090612bab908490614e64565b9091555050565b60008481527f3038aceb20aeb59f48d6bf8fd13e020bec41e77992f7e7e4e936e030912d10f96020818152604080842060028181018890556003820187905582518084019093527f3038aceb20aeb59f48d6bf8fd13e020bec41e77992f7e7e4e936e030912d10f780546001600160a01b0390811685528a1684860152958a905293909252612c4092614778565b506001808201546000878152600284016020908152604080832086546001600160a01b03168452909401905291909120819055612c8590670de0b6b3a7640000614d90565b600086815260028301602090815260408083206001600160a01b038916845260010190915280822092909255905186917fe33b4df6ca519196f49edc783e3efade92579814fa72600f8104e5db7439d4a691a25050505050565b60008360ff16118015612cf25750600082115b8015612d065750670de0b6b3a76400008211155b8015612d125750600081115b612d5e5760405162461bcd60e51b815260206004820152601360248201527f496e76616c696420446174612050617373656400000000000000000000000000604482015260640161095f565b612d688585613912565b612d846000868660405180602001604052806000815250613532565b612deb5760405162461bcd60e51b815260206004820152603260248201527f4552433732313a207472616e7366657220746f206e6f6e20455243373231526560448201527131b2b4bb32b91034b6b83632b6b2b73a32b960711b606482015260840161095f565b6040805160c08101825260ff9485168152602080820194855281830193845260006060830181815260016080850181815260a086018281529a84527f7cb630d146436defe02f120e4c839c242f8b65efc3c28d82b113b73e8a81c29085528684209551865460ff1990811691909b161786559751858201559551600285015551600384015594516004830155955160059091018054909516901515179093557f7cb630d146436defe02f120e4c839c242f8b65efc3c28d82b113b73e8a81c2918452918120805492830181558152919091200180546001600160a01b0319166001600160a01b0392909216919091179055565b60008281527f99574a7094154bb123ae6ae102096f0bf9679b85a5cd1e727aaa0ae5f132e6b46020908152604090912082517f99574a7094154bb123ae6ae102096f0bf9679b85a5cd1e727aaa0ae5f132e6b1926116369291908501906147dd565b612f4a8282613a5a565b5050565b600061080182613528565b826001600160a01b0316612f6c826125a6565b6001600160a01b031614612fe85760405162461bcd60e51b815260206004820152602960248201527f4552433732313a207472616e73666572206f6620746f6b656e2074686174206960448201527f73206e6f74206f776e0000000000000000000000000000000000000000000000606482015260840161095f565b6001600160a01b0382166130635760405162461bcd60e51b8152602060048201526024808201527f4552433732313a207472616e7366657220746f20746865207a65726f2061646460448201527f7265737300000000000000000000000000000000000000000000000000000000606482015260840161095f565b61306e838383613af2565b61307960008261205f565b6001600160a01b03831660009081527f3c7bf052874fa81625121783266a03507bd2cd48b16e571c01a04e8dd3fb07a8602052604090207f3c7bf052874fa81625121783266a03507bd2cd48b16e571c01a04e8dd3fb07a6906130dc9083613afd565b506001600160a01b038316600090815260028201602052604090206131019083613b09565b5061310d818385613b15565b5081836001600160a01b0316856001600160a01b03167fddf252ad1be2c89b69c2b068fc378daa952ba7f163c4a11628f55a4df523b3ef60405160405180910390a450505050565b60008181527f7cb630d146436defe02f120e4c839c242f8b65efc3c28d82b113b73e8a81c29060209081526040808320547f7cb630d146436defe02f120e4c839c242f8b65efc3c28d82b113b73e8a81c291909252909120546000805160206150988339815191529160ff161115613206576000918252600701602090815260408220805460018101825590835291200180546001600160a01b0319166001600160a01b0392909216919091179055565b60005b600083815260078301602052604090205461322690600190614d90565b8110156132ce5760008381526007830160205260409020613248826001614e64565b8154811061325857613258614da7565b600091825260208083209091015485835260078501909152604090912080546001600160a01b03909216918390811061329357613293614da7565b600091825260209091200180546001600160a01b0319166001600160a01b0392909216919091179055806132c681614dbd565b915050613209565b50600082815260078201602052604090208054806132ee576132ee614e7c565b60008281526020808220830160001990810180546001600160a01b0319908116909155930190935584815260078401835260408120805460018101825590825292902090910180546001600160a01b0386169216919091179055505050565b6001600160a01b038216600090815260028401602052604081206122c39083613b2b565b606060ff82166133b457505060408051808201909152600781527f4342455f43433000000000000000000000000000000000000000000000000000602082015290565b600160ff831614156133f957505060408051808201909152600781527f4342455f45435200000000000000000000000000000000000000000000000000602082015290565b600260ff8316141561343e57505060408051808201909152600881527f4342455f4e454352000000000000000000000000000000000000000000000000602082015290565b600360ff8316141561348357505060408051808201909152600b81527f4342455f4e4543525f4853000000000000000000000000000000000000000000602082015290565b600460ff831614156134c857505060408051808201909152600681527f4342455f50520000000000000000000000000000000000000000000000000000602082015290565b505060408051808201909152600981527f4342455f50525f48530000000000000000000000000000000000000000000000602082015290565b919050565b6000806135138484613b37565b50949350505050565b6000610ab38383613b53565b6000610801825490565b60006001600160a01b0384163b61354b575060016122c3565b60006135f663150b7a0260e01b3388878760405160240161356f9493929190614e92565b604051602081830303815290604052907bffffffffffffffffffffffffffffffffffffffffffffffffffffffff19166020820180517bffffffffffffffffffffffffffffffffffffffffffffffffffffffff8381831617835250505050604051806060016040528060328152602001615035603291396001600160a01b0388169190613be4565b905060008180602001905181019061360e9190614ece565b7fffffffff00000000000000000000000000000000000000000000000000000000167f150b7a02000000000000000000000000000000000000000000000000000000001492505050949350505050565b60008181526001830160205260408120541515610ab3565b60006136828383613bf3565b600061368e8484613d81565b60008581527f7cb630d146436defe02f120e4c839c242f8b65efc3c28d82b113b73e8a81c2906020526040812060030154919250600080516020615098833981519152917f3038aceb20aeb59f48d6bf8fd13e020bec41e77992f7e7e4e936e030912d10f791906136ff9087614d90565b6000888152600280850160205260409091200154909150613721908290612b6c565b61372b9085614e64565b979650505050505050565b6000808060001985870985870292508281108382030391505080600014156137715783828161376757613767614e26565b0492505050610ab3565b8381106137b4576040517f773cc18c000000000000000000000000000000000000000000000000000000008152600481018290526024810185905260440161095f565b60008486880960026001871981018816978890046003810283188082028403028082028403028082028403028082028403028082028403029081029092039091026000889003889004909101858311909403939093029303949094049190911702949350505050565b60008080600019848609848602925082811083820303915050670de0b6b3a7640000811061387a576040517fd31b34020000000000000000000000000000000000000000000000000000000081526004810182905260240161095f565b600080670de0b6b3a76400008688099150506706f05b59d3b1ffff8111826138b45780670de0b6b3a7640000850401945050505050610801565b6204000082850304939091119091037d40000000000000000000000000000000000000000000000000000000000002919091177faccb18165bd6fe31ae1cf318dc5b51eee0e1ba569b88cd74c1773b91fac106690201905092915050565b6001600160a01b0382166139685760405162461bcd60e51b815260206004820181905260248201527f4552433732313a206d696e7420746f20746865207a65726f2061646472657373604482015260640161095f565b7f3c7bf052874fa81625121783266a03507bd2cd48b16e571c01a04e8dd3fb07a66139938183612767565b156139e05760405162461bcd60e51b815260206004820152601c60248201527f4552433732313a20746f6b656e20616c7265616479206d696e74656400000000604482015260640161095f565b6139ec60008484613af2565b6001600160a01b03831660009081526002820160205260409020613a109083613b09565b50613a1c818385613b15565b5060405182906001600160a01b038516906000907fddf252ad1be2c89b69c2b068fc378daa952ba7f163c4a11628f55a4df523b3ef908290a4505050565b60058160ff161115613aae5760405162461bcd60e51b815260206004820152600f60248201527f496e76616c6964204c6963656e73650000000000000000000000000000000000604482015260640161095f565b60007f958f4f9db6ce87299d2b6ad9a012c8ea9d207ed3b27d2894b9c8a6036c2271e96000938452602052506040909120805460ff191660ff909216919091179055565b610a00838383613fae565b6000610ab38383613fb9565b6000610ab38383614086565b60006122c384846001600160a01b0385166140d5565b6000610ab38383614172565b6000808080613b4686866141f8565b9097909650945050505050565b600081815260018301602052604081205480613bb15760405162461bcd60e51b815260206004820152601e60248201527f456e756d657261626c654d61703a206e6f6e6578697374656e74206b65790000604482015260640161095f565b836000016001820381548110613bc957613bc9614da7565b90600052602060002090600202016001015491505092915050565b60606122c38484600085614295565b60008281527f7cb630d146436defe02f120e4c839c242f8b65efc3c28d82b113b73e8a81c2906020526040812060030154600080516020615098833981519152917f3038aceb20aeb59f48d6bf8fd13e020bec41e77992f7e7e4e936e030912d10f791613c609085614d90565b6000868152600280850160205260408220015491925090613c82908390612b6c565b905060005b6000878152600285016020526040902054811015613d495760008781526002850160205260408120805483908110613cc157613cc1614da7565b60009182526020808320909101548a835260028801825260408084206001600160a01b03909216808552600192909201909252912054909150613d05908490612b6c565b6001600160a01b038216600090815260038701602052604081208054909190613d2f908490614e64565b90915550829150613d41905081614dbd565b915050613c87565b508085877f203f543c39cd9297a8eb66a22189a127d3e94b5e54d52bfef63fec603138edf160405160405180910390a4505050505050565b60008281527f7cb630d146436defe02f120e4c839c242f8b65efc3c28d82b113b73e8a81c291602090815260408083208054825181850281018501909352808352600080516020615098833981519152938593929190830182828015613e1057602002820191906000526020600020905b81546001600160a01b03168152600190910190602001808311613df2575b5050505050905060018151038152805160001415613e3357600092505050610801565b6000858152600683016020526040812060030154613e519086614d90565b6000878152600685016020526040812060018082015460028301546004909301549495509293613eb393869390929091613e8b9190614d90565b60008c815260068a016020526040902054613eab9060019060ff16614eeb565b60ff166143a7565b905060005b8151811015613f5357818181518110613ed357613ed3614da7565b60200260200101518560080160008760070160008c81526020019081526020016000208481548110613f0757613f07614da7565b60009182526020808320909101546001600160a01b0316835282019290925260400181208054909190613f3b908490614e64565b90915550819050613f4b81614dbd565b915050613eb8565b506000878152600685016020526040902060010154613f73908390612b6c565b94508486887f0362ef0ca7c60bdd7789f855ba29ed06265c4c942f6562c9e0007dbcb1e107c760405160405180910390a45050505092915050565b610a00838383614502565b6000818152600183016020526040812054801561407c57835460009085906000198101908110613feb57613feb614da7565b906000526020600020015490508085600001600184038154811061401157614011614da7565b600091825260208083209091019290925591825260018601905260409020819055835484908061404357614043614e7c565b60019003818190600052602060002001600090559055836001016000848152602001908152602001600020600090556001915050610801565b6000915050610801565b60008181526001830160205260408120546140cd57508154600181810184556000848152602080822090930184905584548482528286019093526040902091909155610801565b506000610801565b60008281526001840160205260408120548061413a575050604080518082018252838152602080820184815286546001818101895560008981528481209551600290930290950191825591519082015586548684528188019092529290912055610ab3565b8285600001600183038154811061415357614153614da7565b9060005260206000209060020201600101819055506000915050610ab3565b815460009082106141d05760405162461bcd60e51b815260206004820152602260248201527f456e756d657261626c655365743a20696e646578206f7574206f6620626f756e604482015261647360f01b606482015260840161095f565b8260000182815481106141e5576141e5614da7565b9060005260206000200154905092915050565b8154600090819083106142585760405162461bcd60e51b815260206004820152602260248201527f456e756d657261626c654d61703a20696e646578206f7574206f6620626f756e604482015261647360f01b606482015260840161095f565b600084600001848154811061426f5761426f614da7565b906000526020600020906002020190508060000154816001015492509250509250929050565b6060843b61430b5760405162461bcd60e51b815260206004820152602b60248201527f416464726573735574696c733a2066756e6374696f6e2063616c6c20746f206e60448201527f6f6e2d636f6e7472616374000000000000000000000000000000000000000000606482015260840161095f565b600080866001600160a01b031685876040516143279190614f0e565b60006040518083038185875af1925050503d8060008114614364576040519150601f19603f3d011682016040523d82523d6000602084013e614369565b606091505b5091509150811561437d5791506122c39050565b80511561438d5780518082602001fd5b8360405162461bcd60e51b815260040161095f9190614946565b606060006143b58484614546565b905060008167ffffffffffffffff8111156143d2576143d2614b38565b6040519080825280602002602001820160405280156143fb578160200160208202803683370190505b50905060015b61440c836001614e64565b8110156144f657600087670de0b6b3a7640000146144ab576000614430898661455c565b61444290670de0b6b3a7640000614f2a565b9050600061445b614454600186614d90565b8b9061455c565b905060006144698d8d61462c565b905060006144896144828d670de0b6b3a7640000614f2a565b839061462c565b9050836144968483614f69565b6144a09190614ff0565b9450505050506144bc565b6144b984611e028c8c612b6c565b90505b80836144c88487614d90565b815181106144d8576144d8614da7565b602090810291909101015250806144ee81614dbd565b915050614401565b50979650505050505050565b6001600160a01b038216610a005760008181527f99574a7094154bb123ae6ae102096f0bf9679b85a5cd1e727aaa0ae5f132e6b460205260408120610a0091614851565b60008183106145555781610ab3565b5090919050565b60008061456884614723565b9050600080846001161161458457670de0b6b3a7640000614586565b815b9050600184901c5b80156145be5761459e838461381d565b925060018116156145b6576145b3828461381d565b91505b60011c61458e565b6001600160ff1b03821115614602576040517fffb15bcd0000000000000000000000000000000000000000000000000000000081526004810183905260240161095f565b600080871280156146165750856001166001145b905080614623578261372b565b61372b8361501e565b6000600160ff1b8314806146435750600160ff1b82145b1561467a576040517f3406846c00000000000000000000000000000000000000000000000000000000815260040160405180910390fd5b6000806000851261468b5784614690565b846000035b9150600084126146a057836146a5565b836000035b905060006146b3838361381d565b90506001600160ff1b038111156146f9576040517fbf79e8d90000000000000000000000000000000000000000000000000000000081526004810182905260240161095f565b6000198087139086138082186001146147125782614717565b826000035b98975050505050505050565b6000600160ff1b821415614763576040517f741d0b8c00000000000000000000000000000000000000000000000000000000815260040160405180910390fd5b600082126147715781610801565b5060000390565b8280548282559060005260206000209081019282156147cd579160200282015b828111156147cd57825182546001600160a01b0319166001600160a01b03909116178255602090920191600190910190614798565b506147d992915061488e565b5090565b8280546147e990614d3f565b90600052602060002090601f01602090048101928261480b57600085556147cd565b82601f1061482457805160ff19168380011785556147cd565b828001600101855582156147cd579182015b828111156147cd578251825591602001919060010190614836565b50805461485d90614d3f565b6000825580601f1061486d575050565b601f01602090049060005260206000209081019061488b919061488e565b50565b5b808211156147d9576000815560010161488f565b7fffffffff000000000000000000000000000000000000000000000000000000008116811461488b57600080fd5b6000602082840312156148e357600080fd5b8135610ab3816148a3565b60005b838110156149095781810151838201526020016148f1565b838111156116365750506000910152565b600081518084526149328160208601602086016148ee565b601f01601f19169290920160200192915050565b602081526000610ab3602083018461491a565b60006020828403121561496b57600080fd5b5035919050565b6001600160a01b038116811461488b57600080fd5b6000806040838503121561499a57600080fd5b82356149a581614972565b946020939093013593505050565b6000806000606084860312156149c857600080fd5b83356149d381614972565b925060208401356149e381614972565b929592945050506040919091013590565b600060208284031215614a0657600080fd5b8135610ab381614972565b600080600060608486031215614a2657600080fd5b8335925060208401356149e381614972565b60008060408385031215614a4b57600080fd5b50508035926020909101359150565b600081518084526020808501945080840160005b83811015614a935781516001600160a01b031687529582019590820190600101614a6e565b509495945050505050565b60ff8716815285602082015284604082015283606082015282608082015260c060a0820152600061471760c0830184614a5a565b838152826020820152606060408201526000614af16060830184614a5a565b95945050505050565b60008060408385031215614b0d57600080fd5b8235614b1881614972565b915060208301358015158114614b2d57600080fd5b809150509250929050565b634e487b7160e01b600052604160045260246000fd5b600067ffffffffffffffff80841115614b6957614b69614b38565b604051601f8501601f19908116603f01168101908282118183101715614b9157614b91614b38565b81604052809350858152868686011115614baa57600080fd5b858560208301376000602087830101525050509392505050565b60008060008060808587031215614bda57600080fd5b8435614be581614972565b93506020850135614bf581614972565b925060408501359150606085013567ffffffffffffffff811115614c1857600080fd5b8501601f81018713614c2957600080fd5b614c3887823560208401614b4e565b91505092959194509250565b60008060408385031215614c5757600080fd5b8235614c6281614972565b91506020830135614b2d81614972565b803560ff8116811461350157600080fd5b60008060008060008060c08789031215614c9c57600080fd5b8635614ca781614972565b9550614cb560208801614c72565b94506040870135935060608701359250614cd160808801614c72565b915060a087013567ffffffffffffffff811115614ced57600080fd5b8701601f81018913614cfe57600080fd5b614d0d89823560208401614b4e565b9150509295509295509295565b60008060408385031215614d2d57600080fd5b823591506020830135614b2d81614972565b600181811c90821680614d5357607f821691505b60208210811415614d7457634e487b7160e01b600052602260045260246000fd5b50919050565b634e487b7160e01b600052601160045260246000fd5b600082821015614da257614da2614d7a565b500390565b634e487b7160e01b600052603260045260246000fd5b6000600019821415614dd157614dd1614d7a565b5060010190565b60008351614dea8184602088016148ee565b835190830190614dfe8183602088016148ee565b01949350505050565b6000816000190483118215151615614e2157614e21614d7a565b500290565b634e487b7160e01b600052601260045260246000fd5b600082614e4b57614e4b614e26565b500490565b600082614e5f57614e5f614e26565b500690565b60008219821115614e7757614e77614d7a565b500190565b634e487b7160e01b600052603160045260246000fd5b60006001600160a01b03808716835280861660208401525083604083015260806060830152614ec4608083018461491a565b9695505050505050565b600060208284031215614ee057600080fd5b8151610ab3816148a3565b600060ff821660ff841680821015614f0557614f05614d7a565b90039392505050565b60008251614f208184602087016148ee565b9190910192915050565b600080831283600160ff1b01831281151615614f4857614f48614d7a565b836001600160ff1b03018313811615614f6357614f63614d7a565b50500390565b60006001600160ff1b03600084136000841385830485118282161615614f9157614f91614d7a565b600160ff1b6000871286820588128184161615614fb057614fb0614d7a565b60008712925087820587128484161615614fcc57614fcc614d7a565b87850587128184161615614fe257614fe2614d7a565b505050929093029392505050565b600082614fff57614fff614e26565b600160ff1b82146000198414161561501957615019614d7a565b500590565b6000600160ff1b82141561477157614771614d7a56fe4552433732313a207472616e7366657220746f206e6f6e20455243373231526563656976657220696d706c656d656e74657261723a2f2f5f44396b4e3157724e576243713535425341475262544234625333763851415054596d42546853625833412f7cb630d146436defe02f120e4c839c242f8b65efc3c28d82b113b73e8a81c28aa264697066735822122030f907f731d52d0f620dfcb1d7500b8da9af081f009d2d4abb1fd4aa1dcf163164736f6c63430008080033",
  "devdoc": {
    "kind": "dev",
    "methods": {
      "approve(address,uint256)": {
        "params": {
          "operator": "address to be approved",
          "tokenId": "token to approve"
        }
      },
      "balanceOf(address)": {
        "returns": {
          "_0": "quantity of tokens held"
        }
      },
      "getApproved(uint256)": {
        "params": {
          "tokenId": "token to query"
        },
        "returns": {
          "_0": "address approved to spend token"
        }
      },
      "isApprovedForAll(address,address)": {
        "params": {
          "account": "address to query for approval granted",
          "operator": "address to query for approval received"
        },
        "returns": {
          "_0": "whether operator is approved to spend tokens held by account"
        }
      },
      "ownerOf(uint256)": {
        "params": {
          "tokenId": "token to query"
        },
        "returns": {
          "_0": "token owner"
        }
      },
      "safeTransferFrom(address,address,uint256)": {
        "params": {
          "from": "sender of token",
          "to": "receiver of token",
          "tokenId": "token id"
        }
      },
      "safeTransferFrom(address,address,uint256,bytes)": {
        "params": {
          "data": "data payload",
          "from": "sender of token",
          "to": "receiver of token",
          "tokenId": "token id"
        }
      },
      "setApprovalForAll(address,bool)": {
        "params": {
          "operator": "address to be approved",
          "status": "approval status"
        }
      },
      "supportsInterface(bytes4)": {
        "params": {
          "interfaceId": "interface id"
        },
        "returns": {
          "_0": "bool whether interface is supported"
        }
      },
      "tokenByIndex(uint256)": {
        "params": {
          "index": "position in global token list to query"
        },
        "returns": {
          "_0": "id of retrieved token"
        }
      },
      "tokenOfOwnerByIndex(address,uint256)": {
        "params": {
          "index": "position in owner's token list to query",
          "owner": "token holder to query"
        },
        "returns": {
          "_0": "id of retrieved token"
        }
      },
      "totalSupply()": {
        "returns": {
          "_0": "total supply"
        }
      },
      "transferFrom(address,address,uint256)": {
        "params": {
          "from": "sender of token",
          "to": "receiver of token",
          "tokenId": "token id"
        }
      }
    },
    "version": 1
  },
  "userdoc": {
    "errors": {
      "PRBMathSD59x18__AbsInputTooSmall()": [
        {
          "notice": "Emitted when the input is MIN_SD59x18."
        }
      ],
      "PRBMathSD59x18__MulInputTooSmall()": [
        {
          "notice": "Emitted when one of the inputs is MIN_SD59x18."
        }
      ],
      "PRBMathSD59x18__MulOverflow(uint256)": [
        {
          "notice": "Emitted when the intermediary absolute result overflows SD59x18."
        }
      ],
      "PRBMathSD59x18__PowuOverflow(uint256)": [
        {
          "notice": "Emitted when the intermediary absolute result overflows SD59x18."
        }
      ],
      "PRBMath__MulDivFixedPointOverflow(uint256)": [
        {
          "notice": "Emitted when the result overflows uint256."
        }
      ],
      "PRBMath__MulDivOverflow(uint256,uint256)": [
        {
          "notice": "Emitted when the result overflows uint256."
        }
      ]
    },
    "kind": "user",
    "methods": {
      "approve(address,uint256)": {
        "notice": "grant approval to given account to spend token"
      },
      "balanceOf(address)": {
        "notice": "query the balance of given address"
      },
      "getApproved(uint256)": {
        "notice": "get approval status for given token"
      },
      "isApprovedForAll(address,address)": {
        "notice": "query approval status of given operator with respect to given address"
      },
      "name()": {
        "notice": "inheritdoc IERC721Metadata"
      },
      "ownerOf(uint256)": {
        "notice": "query the owner of given token"
      },
      "safeTransferFrom(address,address,uint256)": {
        "notice": "transfer token between given addresses, checking for ERC721Receiver implementation if applicable"
      },
      "safeTransferFrom(address,address,uint256,bytes)": {
        "notice": "transfer token between given addresses, checking for ERC721Receiver implementation if applicable"
      },
      "setApprovalForAll(address,bool)": {
        "notice": "grant approval to or revoke approval from given account to spend all tokens held by sender"
      },
      "supportsInterface(bytes4)": {
        "notice": "query whether contract has registered support for given interface"
      },
      "symbol()": {
        "notice": "inheritdoc IERC721Metadata"
      },
      "tokenByIndex(uint256)": {
        "notice": "get token at given internal storage index"
      },
      "tokenOfOwnerByIndex(address,uint256)": {
        "notice": "get token of given owner at given internal storage index"
      },
      "tokenURI(uint256)": {
        "notice": "inheritdoc IERC721Metadata"
      },
      "totalSupply()": {
        "notice": "get total token supply"
      },
      "transferFrom(address,address,uint256)": {
        "notice": "transfer token between given addresses, without checking for ERC721Receiver implementation if applicable"
      }
    },
    "version": 1
  },
  "storageLayout": {
    "storage": [],
    "types": null
  }
}